:100000000C9462000C94D90C0C94B20C0C948A00E1
:100010000C948A000C948A000C948A000C948A0038
:100020000C948A000C948A000C948A000C948A0028
:100030000C948A000C948A000C948A000C948A0018
:100040000C94680C0C948A000C94260D0C94000DF2
:100050000C948A000C948A000C948A000C948A00F8
:100060000C948A000C948A000000000023002600F3
:10007000290000000000240027002A0000000000E2
:10008000250028002B0004040404040404040202D4
:100090000202020203030303030301020408102007
:1000A0004080010204081020010204081020000012
:1000B0000008000201000003040700000000000027
:1000C0000000580D11241FBECFEFD8E0DEBFCDBF1A
:1000D00011E0A0E0B1E0EAE3FCE302C005900D927C
:1000E000AE35B107D9F725E0AEE5B1E001C01D920C
:1000F000A433B207E1F710E0C2E6D0E004C02197D4
:10010000FE010E94EF1DC136D107C9F70E94F30D11
:100110000C941B1E0C9400008230F8F4E82FF0E0E1
:10012000EE0FFF1FEC5FFE4F22E833E031832083A8
:10013000813041F0809169008C7F682B6093690069
:10014000E89A089580916900837F660F771F660F94
:10015000771F682B60936900E99A0895FC01538D1D
:10016000448D252F30E0842F90E0821B930B541791
:1001700010F0CF96089501970895FC01918D828D1E
:10018000981761F0A28DAE0FBF2FB11D5D968C91B7
:10019000928D9F5F9F73928F90E008958FEF9FEFF6
:1001A0000895FC01918D828D981731F0828DE80FB2
:1001B000F11D858D90E008958FEF9FEF0895FC016C
:1001C000918D228D892F90E0805C9F4F821B910939
:1001D0008F7399270895FC01A48DA80FB92FB11D25
:1001E000A35ABF4F2C91848D90E001968F7399276D
:1001F000848FA689B7892C93A089B1898C9183704B
:1002000080648C93938D848D981306C00288F38943
:10021000E02D80818F7D80830895EF92FF920F9370
:100220001F93CF93DF93EC0181E0888F9B8D8C8DA2
:1002300098131AC0E889F989808185FF15C09FB796
:10024000F894EE89FF896083E889F9898081837059
:10025000806480839FBF81E090E0DF91CF911F9108
:100260000F91FF90EF900895F62E0B8D10E00F5F29
:100270001F4F0F731127E02E8C8D8E110CC00FB6FF
:1002800007FCFACFE889F989808185FFF5CFCE0197
:100290000E94EB00F1CFEB8DEC0FFD2FF11DE35A27
:1002A000FF4FF0829FB7F8940B8FEA89FB8980811A
:1002B0008062CFCFCF93DF93EC01888D8823B9F094
:1002C000AA89BB89E889F9898C9185FD03C0808161
:1002D00086FD0DC00FB607FCF7CF8C9185FFF2CFDE
:1002E000808185FFEDCFCE010E94EB00E9CFDF9149
:1002F000CF91089585E492E00E94DF0021E0892BF0
:1003000009F420E0822F089580E090E0892B29F005
:100310000E947A0181110C9400000895833081F0CD
:1003200028F4813099F08230A9F008958730A9F03F
:100330008830C9F08430B1F4809180008F7D03C093
:10034000809180008F7780938000089584B58F77A7
:1003500084BD089584B58F7DFBCF8091B0008F77E9
:100360008093B00008958091B0008F7DF9CF1F93E6
:10037000CF93DF93282F30E0F901E255FF4F8491AE
:10038000F901E656FF4FD491F901EA57FF4FC491A6
:10039000CC23A9F0162F81110E948E01EC2FF0E0E2
:1003A000EE0FFF1FE458FF4FA591B4918FB7F8945B
:1003B000EC91111108C0D095DE23DC938FBFDF9143
:1003C000CF911F910895DE2BF8CFCF93DF9390E06C
:1003D000FC01E656FF4F24918A579F4FFC01849100
:1003E0008823C9F090E0880F991FFC01EE58FF4F59
:1003F000A591B491FC01E458FF4FC591D4916111CE
:100400000DC09FB7F8948C91209582238C9388819E
:10041000282328839FBFDF91CF910895623051F444
:100420009FB7F8943C91822F809583238C93E88129
:100430002E2BEFCF8FB7F894EC912E2B2C938FBFF0
:10044000EACF8E50806480937C0080917A00806433
:1004500080937A0080917A0086FDFCCF80917800AD
:100460009091790008952FB7F894609141027091AE
:10047000420280914302909144022FBF089580E090
:1004800090E0892B11F00C94000008950895AF922C
:10049000BF92CF92DF92EF92FF920F931F93CF9371
:1004A000DF936C017B018B01040F151FEB015E01D3
:1004B000AE18BF08C017D10759F06991D601ED9168
:1004C000FC910190F081E02DC6010995892B79F707
:1004D000C501DF91CF911F910F91FF90EF90DF90B9
:1004E000CF90BF90AF9008950F931F93CF93DF935A
:1004F000EC01611108C00E9433026E837F838887FC
:1005000099871C861DC00E9433020E811F81288599
:100510003985601B710B820B930B0A811B812C8127
:100520003D81601771078207930758F30E943302D9
:100530006E837F83888799878C8591E089278C8754
:100540008C85DF91CF911F910F9108950F931F9389
:10055000CF93DF93EC011C86662349F081E08A8704
:100560008B878C85DF91CF911F910F9108958A859C
:10057000882339F01A860E9433026E837F8388872E
:1005800099870E9433020E811F8128853985601B5F
:10059000710B820B930B0A811B812C813D816017AB
:1005A000710782079307E8F28B858823D1F21B86B7
:1005B00081E08C87D6CF0F931F93CF93DF93EC010D
:1005C0001C86611109C081E08A878B878C85DF9149
:1005D000CF911F910F9108958A85882339F01A864B
:1005E0000E9433026E837F83888799870E9433023B
:1005F0000E811F8128853985601B710B820B930B3F
:100600000A811B812C813D81601771078207930746
:10061000E8F28B858823D1F21B8681E08C87D6CFC8
:10062000CF93C82F80E090E0892B51F08091C601D4
:100630008C1731F081E0C11101C080E00E94000000
:10064000C093C60160E070E0CB01C1110E9433028B
:100650006093C7017093C8018093C9019093CA0148
:1006600080E090E0892B59F08091C6018C1739F019
:1006700081E0C11101C080E0CF910C940000CF91C6
:1006800008951F93CF93DF93EC01162F80E090E045
:10069000892B91F0C830D10579F4662319F10E94B5
:1006A000000080E090E0892BB9F0612FCE01DF914E
:1006B000CF911F910C94000080E090E0892BA9F766
:1006C00081E0C11594E0D90708F080E0111105C060
:1006D000DF91CF911F91089581E027972297C0F76E
:1006E00080E0F6CF80E090E0892BF9F681E0F0CF52
:1006F00080E090E0892B29F08091DD0183FD0C944E
:1007000000000895FF920F931F93CF93DF933FB79D
:10071000F89480913C0290913D02A0913E02B091EC
:100720003F0226B5A89B05C02F3F19F00196A11DD9
:10073000B11D3FBFBA2FA92F982F8827820F911D77
:10074000A11DB11D42E0880F991FAA1FBB1F4A952A
:10075000D1F72091690130916A01EC01C21BD30BE2
:100760002091A5013091A601C217D30708F45FC0FC
:100770002091AE013091AF012130310561F0E0915F
:10078000D701F091D80140815091D9014523509172
:10079000A30145134CC090936A01809369010091B5
:1007A000A7011091A8012230310509F413C12330AB
:1007B000310509F44EC12130310561F480916801A1
:1007C000813009F447C0C8F1833009F482C0843015
:1007D00009F4C9C08091AE019091AF01019739F140
:1007E000C017D10708F06DC1809166018F5F8093BB
:1007F00066018B30E0F081E090E09093AF01809350
:10080000AE0161E070E08091D5010E948C001092F1
:10081000A3011092680182E590E09093A801809373
:10082000A70183E290E09093A6018093A501DF9158
:10083000CF911F910F91FF900895C017D10730F409
:1008400081E080936801C0936701C4CF84E0809306
:100850006801C0CFC017D107D0F510926801809110
:1008600066018F5F80936601209167018C2F0C2EAB
:10087000000C990B821B910927FD939597FF03C0EC
:10088000919581959109499794F21092AF01109238
:10089000AE0182E990E09093A8018093A70182E5E0
:1008A00090E09093A6018093A50110926601F090CC
:1008B000A4016F2D70E08091D5010E948C00809181
:1008C000D90193E0F91227C08093A30183CF83E07D
:1008D000BECFC017D10708F51092AF011092AE013C
:1008E00082E990E09093A8018093A70182E590E0CF
:1008F0009093A6018093A50110926601F090A40147
:100900006F2D70E08091D5010E948C008091D901FB
:1009100033E0F316C9F280E0D7CF9091A401933071
:1009200009F482E08093A40182E090E09093AF010B
:100930008093AE0182E990E09093A8018093A70193
:1009400082E590E09093A6018093A5011092B401F6
:10095000809166018093B5011092B1011092B301AC
:100960001092B201CBCFC017D107A8F41092AF01FB
:100970001092AE0182E990E09093A8018093A701C4
:1009800082E590E09093A6018093A5011092660104
:100990001092B1018CCF82E090E09093AF018093F0
:1009A000AE0182E990E09093A8018093A70182E5CF
:1009B00090E09093A6018093A5011092B4018091DC
:1009C00066018093B5011092B1011092B3011092AB
:1009D000B2016DCF9091B1019F5F9093B101809171
:1009E000B201880FC017D107E0F08093B2019830B0
:1009F00009F0F6CEE091B401E630A9F41092AF010F
:100A00001092AE0182E990E09093A8018093A70133
:100A100082E590E09093A6018093A5011092B10128
:100A2000D9CE8160E2CF83E090E09093AF018093D4
:100A3000AE0181E08E0F8093B4019091B201F0E09D
:100A4000E255FE4F90878091B30189278093B301CF
:100A5000C1CEC017D10728F51092AF011092AE0198
:100A60001092B10182E990E09093A8018093A701D0
:100A700082E590E09093A6018093A5018091B30157
:100A80008111B2CE88E0E4EBF1E0ACEBB1E0019093
:100A90000D928A95E1F781E08093B0011092660192
:100AA00099CE8091B401863009F4A8CF82E090E01D
:100AB0009093AF018093AE011092B1011092B201F8
:100AC00089CE10926601B3CE0F931F93CF93DF931D
:100AD000EC010E9433020D811E812F813885601B3D
:100AE000710B820B930B0B851C852D853E85601742
:100AF00071078207930730F10E9433026D837E8372
:100B00008F8398878B818F5F8B839F85891302C02A
:100B10001B8219868985882361F09B818881392F02
:100B200036952A85321718F461E090FF20C060E006
:100B30001EC08981823089F350F48823B1F061E0CE
:100B40008130A1F0DF91CF911F910F9108958430F2
:100B5000D9F098F08530B1F76C8188810E94B70197
:100B60008C8191E089278C83EDCF60E08881DF91D3
:100B7000CF911F910F910C94B7018B8165E00E947A
:100B8000CF1D9111DFCFE8CF8B8180FDDBCFE4CF8C
:100B9000CF93DF93EC016F5F6A8781E089871B82C7
:100BA0000E9433026D837E838F839887DF91CF917C
:100BB0000895AF92BF92CF92DF92EF92FF920F9380
:100BC0001F93CF93DF932091310221FF59C08C01F5
:100BD00088EE93E0689F6001699FD00C11240D2C72
:100BE000000CEE08FF08D0E0C0E089E3B82EBC9E00
:100BF0009001BD9E300D1124F901EB5EFC4F9081F8
:100C0000892F829586958695837091819170990F31
:100C1000990F982B923079F5F901E45EFC4F5081E1
:100C200056954181642F679566276795862F852B9A
:100C300046955281579555275795952F942BAC0182
:100C40004F5F5F4F0817190731F5F901EC5EFC4F54
:100C5000C48AD58AE68AF78A828182608283AC2E32
:100C6000A3946A2D80E093E00E94C8056A2D80EF6E
:100C700092E00E94C8052196C830D10509F0B7CF8F
:100C8000DF91CF911F910F91FF90EF90DF90CF9068
:100C9000BF90AF9008950417150769F7F901EC5E4E
:100CA000FC4FC1A2D2A2E3A2F4A282818460D6CF7B
:100CB0008091E101882371F01092E10163E080E00E
:100CC00093E00E94C80563E080EF92E00E94C805AF
:100CD00081E0089580E008958091310280FD55C043
:100CE00090911C03969580911D03482F47954427AA
:100CF0004795242F292B869590911E039795992728
:100D00009795392F382B88E050E040E079E3749FC5
:100D1000F001759FF00D1124EB5EFC4F9081692F5F
:100D2000629566956695637091819170990F990FA0
:100D3000962B9250923030F52E5F3F4F8F5F4F5F72
:100D40005F4F749FF001759FF00D1124EC5EFC4F16
:100D500090859170622F660F962B9087922F991F26
:100D60009927991F632F660F962B918792859E7FF7
:100D7000632F661F6627661F962B928747305105A3
:100D800031F608952F5F3F4FDACF88E00895FC01D8
:100D9000848586FD03C0222309F454C08181982FE5
:100DA00092959695969593705281852F8170880FB4
:100DB000880F892B853009F445C094859F7B9487E3
:100DC000A085A6959185B92FB795BB27B7952B2FF1
:100DD0002A2B9695A285A795AA27A7953A2F392B56
:100DE0008230E9F020F0833099F0843059F52617ED
:100DF000370739F591E0411190E0828190FB83F94A
:100E000090FB85F9417040FB84F940FB86F90DC0E9
:100E1000852F53FB85F9982F84FB96F9928326172B
:100E2000370731F4828140FB83F9828381E00895A2
:100E30002F5F3F4F2617370729F4828140FB84F943
:100E4000F4CF089580E00895CF92DF92EF92FF9261
:100E50000F931F93CF93DF93EC01162F042F8091F4
:100E6000330281FD0BC0C430D10509F45DC0249765
:100E7000C13028E0D20710F0C0E0D8E00E94330271
:100E8000C0905E01D0905F01E0906001F090610140
:100E90006C197D098E099F09643F71408105910598
:100EA00088F00E94330260935E0170935F0180932B
:100EB00060019093610181E08093E101D093E001B2
:100EC000C093DF01809131028C7029F58091E70198
:100ED000811121C00023F9F0FF24F394111101C006
:100EE000F12C04E113E020E04F2DBE01C8010E9467
:100EF000C706882351F061E080E093E00E94C805B6
:100F000061E080EF92E00E94C805075C1F4F84E01B
:100F10000C3D180741F7DF91CF911F910F91FF9082
:100F2000EF90DF90CF900895C1E0D0E0A7CF2F924F
:100F30003F924F925F926F927F928F929F92AF9269
:100F4000BF92CF92DF92EF92FF920F931F93CF93B6
:100F5000DF9300D01F92CDB7DEB77C0190913102B4
:100F60009C7009F4C7C029836A010E946C06209115
:100F70001C03269590911D03392F379533273795FC
:100F8000032F022B969520911E0327952227279544
:100F9000122F192B909131029C70943009F08DC062
:100FA000CA94CD2809F0A6C0E016F10608F4A2C044
:100FB000282F30E0A9014150510957FF02C04D5F71
:100FC0005F4F55954795559547954F5F400F512F6A
:100FD000511DE416F50608F08DC0E01AF10A9E2DA9
:100FE000990F990F4FE050E0092E02C0440F551F92
:100FF0000A94E2F740955095209164013091650183
:101000004223532329812F7030E002C0220F331F67
:101010009A95E2F7BA01622B732B7B836A837093F4
:101020006501609364014090620150906301709388
:101030006301609362016415750509F45BC0F12CCE
:10104000E12C282E312C4626572666246394712CD9
:101050002CEDA22E24E0B22E2E143F040CF44AC034
:10106000C3010E2C02C0880F991F0A94E2F7842155
:101070009521892BF1F08A819B810E2C02C09695D7
:1010800087950A94E2F7782F717079834701800E73
:10109000911E84E1C82E83E0D82E21E04981B4015D
:1010A000C6010E94C70689E3C80ED11CAC14BD045A
:1010B000A1F79FEFE91AF90ACFCF9830A9F4E0160B
:1010C000F106C1F431E0C316D10471F062E0C61636
:1010D000D10461F073E0C716D10451F094E0C91651
:1010E000D10441F49CE07ECF90E07CCF94E07ACFB5
:1010F00098E078CF0F900F900F90DF91CF911F91D4
:101100000F91FF90EF90DF90CF90BF90AF909F90A6
:101110008F907F906F905F904F903F902F900895A9
:10112000FC01862F9181929596959695937019F46E
:10113000642F0C94B701413009F05BC09485892F6E
:10114000881F8827881F95859770990F982B9B304B
:1011500008F072C0228526952F71422F50E0FA01C7
:10116000EA57FF4F8491FA01E656FF4F3491E82F7A
:10117000F0E0EE0FFF1FE458FF4F65917491E4EE2D
:10118000F4E0DF0150E040E014968C9114972813AE
:101190000AC085E0849FF001859FF00D1124EC5179
:1011A000FB4F938308954F5F5F4F15964031510574
:1011B00059F750E040E084818F3F39F04F5F5F4F37
:1011C000359640315105B9F7089585E0849FD001E7
:1011D000859FB00D1124AC51BB4F11967C936E933B
:1011E00012963C93129713969C93139714962C93F4
:1011F00008958285982F92959695969593708385FC
:101200008770880F880F892BE4EEF4E030E020E04F
:10121000948189130BC085E0829FF001839FF00DBC
:101220001124EC51FB4F8FEF848308952F5F3F4FC4
:1012300035962031310561F70895CF93DF93EC01A6
:101240008A8185788B7F8A836A8566956F7140E095
:10125000CE010E9490086A85862F82958695869594
:1012600083706B856770660F660F682B40E0CE0158
:101270000E9490088981982F9295969596959370E3
:101280008A818170880F880F892B843071F48B8557
:1012900060E08695869586950E94B7018C8560E012
:1012A0008F71DF91CF910C94B701DF91CF910895A9
:1012B0000E941003E4ECF1E081E087831086EDECFE
:1012C000F1E088E0DF011D928A95E9F708951F9308
:1012D000CF93DF93EC01162F83319105C8F4813150
:1012E000910528F48130910511F0099731F48FEFC1
:1012F0009FEF9093DB018093DA0180E090E0892BEF
:10130000A9F0612FCE01DF91CF911F910C940000C5
:101310004D9799F7177F1093DD018091C4018F736A
:10132000912F907C892B8093C401E1CFCE010E9444
:10133000B91D1817A1F080E090E0892B21F0612FF2
:10134000CE010E94000080E090E0892B41F0809166
:10135000C40184FD04C0612FCE010E940000CE01B3
:10136000DF91CF911F910C94B91D20E030E0232B29
:1013700011F00C9400000C94B91DBF92CF92DF9233
:10138000EF92FF920F931F93CF93DF938B01B42EB5
:10139000690182FF23C083FF17C061E0C8010E947A
:1013A00041038823D9F16B2DC8010E9467098B1175
:1013B00035C0F601DF91CF911F910F91FF90EF9013
:1013C000DF90CF90BF90099460E0C8010E94410374
:1013D000882321F1C8010E94B509E9CF842F8770C5
:1013E000C1E0D0E07E0101C0EE0C8A95EAF7D42F6F
:1013F000D870CB010E94B509C82FB4FE1CC061E0B3
:10140000C8010E944103882349F0DD2389F0CE29D9
:101410006C2FC8010E9467098C1759F2DF91CF9198
:101420001F910F91FF90EF90DF90CF90BF900895A4
:10143000E094CE21EDCF60E0C8010E9441038823F3
:1014400069F3CE21DD2319F0C111B3CFE7CFCC234F
:1014500009F4AFCFE3CFCF92DF92EF92FF920F93D9
:101460001F93CF937C016B01C42F402F8C2F807E64
:10147000803609F46FC080F4803209F44EC08034A5
:1014800009F468C08823B9F1CF911F910F91FF90A3
:10149000EF90DF90CF900895803A09F492C088F4DD
:1014A0002C2F2F7141E050E0803871F7B601C70151
:1014B000CF911F910F91FF90EF90DF90CF900C9400
:1014C0009707803C09F486C0803EF1F66C2F70E0EF
:1014D000762F662766277370622B6F5F7F4F28E732
:1014E00033E08C2FCF911F910F91FF90EF90DF9001
:1014F000CF900C94BD098C2F8E7031F680E090E077
:10150000892B11F28C2F8170CF911F910F91FF9039
:10151000EF90DF90CF900C940000CF71CF3109F0A5
:10152000B3CF80E090E0892B09F4AECF422F4F7704
:1015300069F0413069F0221F2227221F30E00FE7B7
:1015400010E0B601C7010E9400009ECF41E0F3CF3A
:1015500040E0F1CF80E090E0892BC1F02C2F30E00B
:101560008C2F8F71813029F030F0803121F0813162
:10157000F1F440E001C041E025FB222720F90DE114
:1015800010E030E0B601C7010E94000080E090E06A
:10159000892B09F479CF4C2FB601C701CF911F9148
:1015A0000F91FF90EF90DF90CF900C940000C90155
:1015B000880F991F8E71C4FB442740F9482B425075
:1015C000DBCF2C2F2F7043E050E0C4FF6FCF42E001
:1015D00050E06CCFCF71CE3131F0CF3109F054CF24
:1015E00045E050E063CF44E050E060CFCF93DF931D
:1015F0002091DA013091DB012F3F320721F0C90140
:10160000DF91CF9108958091DD0187FF2BC086FF88
:101610000FC089E090E00E94B509C82F81E090E0FA
:101620000E94B5099C2F9093DB018093DA0115C0CD
:1016300089E090E00E94B509C82F81E090E00E9407
:10164000B50990E4C99F90011124207C31708F73FB
:10165000282B3093DB012093DA018091DA019091FD
:10166000DB01CECF85FF0CC081E190E00E94B5097F
:10167000C82F82E190E00E94B509C05CDD0BD2CF9B
:1016800081E090E00E94B50990E0CDCF0E94091E54
:10169000CF93DF93EC0161E088810E94E50160E077
:1016A00088810E94B7014DE050E06CE471E085E470
:1016B00092E00E94470242E050E06AE571E085E472
:1016C00092E0DF91CF910C944702FF920F931F930A
:1016D000CF93DF93EC01F62E08811981C8010E9497
:1016E000B91DF81621F06F2DC8010E94C11DCE0151
:1016F000DF91CF911F910F91FF900895CF92DF92CC
:10170000EF92FF920F931F93CF93DF9300D0CDB74B
:10171000DEB76C017C0108E310E01A830983F7014E
:1017200061917F01CE0101960E94650B0F5F1F4FF3
:101730000B33110591F7C6010F900F90DF91CF91F8
:101740001F910F91FF90EF90DF90CF900895AF928F
:10175000BF92CF92DF92EF92FF920F931F93CF939E
:10176000DF9300D0CDB7DEB70BE611E0580150E0B3
:1017700040E077E069E3749FF001759FF00D11245C
:10178000E559FE4F649F9001659F300D1124C901FA
:101790008B5E9C4FDC019C919295969596959370EB
:1017A00011968C918170880F880F982B8081887F8B
:1017B000D901AA5EBC4FFC90892BF5FA83F9F6FAA1
:1017C00084F9D901A05EBC4F9C91F92EFF1CFF2427
:1017D000FF1C11969C919770990F9F29F92EF294F6
:1017E000FF0CA0EEFA228F718F298083D901A45EAD
:1017F000BC4F8C91E82EE6941196FC908F2D879526
:10180000882787958E29F694E82EE294B0EFEB2294
:101810009695969596959E299183F29490EFF9224C
:1018200082958F708F298283F901E85EFC4F908149
:1018300096958181282F279522272795C22EC92A80
:10184000982F96958281282F279522272795D22E8B
:10185000D92A982F96958381282F27952227279577
:10186000E22EE92A86959481979599279795F92EE6
:10187000F82AEE24FF24F501C382D482E582F682A1
:101880004F5F5F4FF7E0AF0EB11C4830510509F0D4
:1018900072CFF12CE12CFA82E982D8016D918D0191
:1018A000CE0101960E94650BBFEFEB1AFB0AE8E33D
:1018B000EE16F10481F70F900F90DF91CF911F91F9
:1018C0000F91FF90EF90DF90CF90BF90AF90089571
:1018D0001F920F920FB60F9211242F933F938F9365
:1018E0009F93AF93BF938091410290914202A09148
:1018F0004302B09144023091400223E0230F2D3780
:1019000058F50196A11DB11D20934002809341021C
:1019100090934202A0934302B093440280913C0210
:1019200090913D02A0913E02B0913F020196A11D0F
:10193000B11D80933C0290933D02A0933E02B09370
:101940003F02BF91AF919F918F913F912F910F9047
:101950000FBE0F901F90189526E8230F0296A11D29
:10196000B11DD2CF1F920F920FB60F9211242F9359
:101970003F934F935F936F937F938F939F93AF9317
:10198000BF93EF93FF93E0910601F0910701099552
:10199000FF91EF91BF91AF919F918F917F916F9147
:1019A0005F914F913F912F910F900FBE0F901F901D
:1019B00018951F920F920FB60F9211242F933F93F9
:1019C0004F935F936F937F938F939F93AF93BF9347
:1019D000EF93FF93E0910401F09105010995FF91C8
:1019E000EF91BF91AF919F918F917F916F915F9197
:1019F0004F913F912F910F900FBE0F901F90189510
:101A00001F920F920FB60F9211242F933F934F9373
:101A10005F936F937F938F939F93AF93BF93EF9356
:101A2000FF9385E492E00E94EB00FF91EF91BF915C
:101A3000AF919F918F917F916F915F914F913F9166
:101A40002F910F900FBE0F901F9018951F920F921D
:101A50000FB60F9211242F938F939F93EF93FF93C1
:101A6000E0915502F09156028081E0915B02F09185
:101A70005C0282FD1BC0908180915E028F5F8F733C
:101A800020915F02821741F0E0915E02F0E0EB5B93
:101A9000FD4F958F80935E02FF91EF919F918F9103
:101AA0002F910F900FBE0F901F9018958081F4CF4B
:101AB000109248021092470288EE93E0A0E0B0E056
:101AC0008093490290934A02A0934B02B0934C0238
:101AD0008CE291E0909346028093450285EC90E081
:101AE000909352028093510284EC90E090935402C0
:101AF0008093530280EC90E09093560280935502BD
:101B000081EC90E0909358028093570282EC90E031
:101B100090935A028093590286EC90E090935C0275
:101B200080935B0210925E0210925F02109260023C
:101B300010926102E4E1F3E081E024E431E04AE460
:101B400051E0848F858F338B228B81A782A730A3AE
:101B5000278F86AB87AB55A744A79385986F93874C
:101B600094859F619487F99694E0EC3DF90749F7D5
:101B7000109212031092130346E950E060E070E007
:101B800040930B0350930C0360930D0370930E036B
:101B900094E190930F0324E0209300034093FB0211
:101BA0005093FC026093FD027093FE029093FF023B
:101BB0009DE09093F0028093ED028093EE028EE31D
:101BC00091E09093E4028093E30282E08093E2024A
:101BD000E4EEF4E084E395E02FEF248335968E174E
:101BE0009F07D9F70895CF93DF93CDB7DEB7289736
:101BF0000FB6F894DEBF0FBECDBF789484B5826077
:101C000084BD84B5816084BD85B5826085BD85B5A0
:101C1000816085BD80916E00816080936E0010921E
:101C20008100809181008260809381008091810099
:101C3000816080938100809180008160809380002A
:101C40008091B10084608093B1008091B000816088
:101C50008093B00080917A00846080937A008091B4
:101C60007A00826080937A0080917A00816080930C
:101C70007A0080917A00806880937A001092C10087
:101C800088EE93E0A0E0B0E08093E5029093E60256
:101C9000A093E702B093E80262E088E00E94E501C9
:101CA00088E0809311031092100308E011E0D8013E
:101CB0008C910E5F1F4F61E00E94E501B1E0083298
:101CC0001B07A9F780E093E00E94480B80EF92E0A9
:101CD0000E94480B8CEF93E00E94B91D89838DEF21
:101CE00093E00E94B91D8A838EEF93E00E94B91D94
:101CF0008B838FEF93E00E94B91D8C8389819A8139
:101D0000AB81BC818F3E9E4BAD4ABE4D09F477C07E
:101D10008FEE9EEBADEABEED89839A83AB83BC83E5
:101D20009E012F5F3F4F79010CEF13E01E830D835F
:101D3000D7016D917D01CE0105960E94650B0F5F65
:101D40001F4F0115B4E01B0789F780E091E00E9466
:101D50007E0BA4E1B3E030E020E019E342E350E081
:101D600060E070E0129FF001139FF00D1124EC5E13
:101D7000FC4F81818F73818382818E7F82839481E6
:101D800091709466948315821682178280858E7F67
:101D9000808754964D935D936D937C93579791965E
:101DA0004D935D936D937C939497C9010196382F61
:101DB000330F20852170232B2087392F330F282FB5
:101DC000221F2227221F232B2187392F331F33273E
:101DD000331F22852E7F232B228724852F7724876C
:101DE0002585287F2560258722812F7D2F7B2283D3
:101DF000D9969C01089709F0B5CF0E94A70B88E3FC
:101E000090E00E94B91D8093310289E390E00E9426
:101E1000B91D809332028AE390E00E94B91D80933D
:101E200033026BE6C62E61E0D62E760110E000E0AC
:101E3000C8010E94B91DF70181937F010F5F1F4FF9
:101E400008331105A9F780911F038770806780937D
:101E50001F0380912003807E8F60809320038091F8
:101E60005803877080688093580380915903807E5F
:101E70008161809359038091910387708069809379
:101E8000910380919203807E83618093920380917D
:101E9000CA0387708093CA038091CB03807E8160E0
:101EA0008093CB0328E0822E21E0922E04E113E000
:101EB000F12CE12C39E3332E47E0242E58EE452E49
:101EC00053E0552E612C712C3E9C90013F9C300DAF
:101ED0001124F901EC5EFC4F2E9CA0012F9C500DAB
:101EE0001124DA01A559BE4F8C91682F6295660FB7
:101EF000660F607C91819F73962B918382FB66278E
:101F000060F992819E7F962B83FB95F984FB96F96D
:101F10009283982F92959695977011968C918F70C9
:101F2000880F880F880F892B948580FB97F99487F9
:101F3000869587709585987F892B8587DA01A459C6
:101F4000BE4F8C9182958F7011969C91492F42952E
:101F5000407F842B92959F70990F482F441F4427F0
:101F6000441F942B918792859E7F9287D60113966A
:101F70007C91139714966C91149715965C91159714
:101F800016964C91A72FAA0F948191709A2B948347
:101F9000A62FAA0F972F991F9927991F9A2B9583E0
:101FA000A52FAA0F962F991F9927991F9A2B9683D1
:101FB000A42FAA0F952F991F9927991F9A2B9783C2
:101FC000942F991F9927991F880F892B8087D801F3
:101FD00054967C93549755966C93559756965C936C
:101FE000569757964C93579791967C9391979296C4
:101FF0006C93929793965C93939794964C93D40199
:1020000012964D915C9113978C918F71982F990F27
:1020100082858170642F6295660F660F607C892BC4
:10202000862B8287569547955695479547708385A9
:10203000887F482B4387F80146A657A660AA71AA55
:10204000F901EB5EFC4F8081982F929596959695BD
:10205000937081818170880F880F892B982F9570DC
:1020600011F0843009F53E9CC0013F9C900D112475
:102070009C01225E3C4F5901D9016C9166956F71AC
:1020800040E0C8010E949008F5016081862F82958A
:1020900086958695837061816770660F660F682BE1
:1020A00040E0C8010E9490083E9C50013F9CB00C4B
:1020B0001124F501EB5EFC4F8081982F9295969547
:1020C0009695937081818170880F880F892B843059
:1020D00001F595012A5E3C4F38872F83D9016C9119
:1020E00065FB662760F9F501E15EFC4F808186950E
:1020F000869586950E94B701EF81F885608166FB21
:10210000662760F9F501E05EFC4F80818F710E94C7
:10211000B7013E9CF0013F9CF00D1124DF01AB5E46
:10212000BC4F9C9111968C918170282F220F220F09
:1021300096FB882780F9822B813069F4DF01AA5E43
:10214000BC4F9C91EC5EFC4F828195FB83F9982FEC
:1021500086FB94F99283FFEFEF1AFF0A27E0C20E85
:10216000D11C075C1F4F34E0830E911C48E0E4163D
:10217000F10409F0A9CE1092D50182E08093D60136
:10218000E8E8F0E0E491F0E0EE0FFF1FE859FF4FC0
:10219000859194919093D8018093D701ECE9F0E078
:1021A000E491E093D90160E082E00E94E501EEEA6B
:1021B000F1E086E1DF011D928A95E9F782E990E07E
:1021C0009093A8018093A70182E590E09093A601E7
:1021D0008093A50180EC8093C4011092C5018FEF1C
:1021E0009FEF9093DB018093DA011092DC0183E092
:1021F0008093A4018091D9018093A30163E070E0F2
:102200008091D5010E948C008DE190E00E94B5097B
:10221000682F606C8DE190E00E9467098093DD017A
:102220006BE087E090E00E9467096DE088E090E055
:102230000E94670980E00E94580902E3402E512C59
:10224000612C712C88EE282E83E0382E19E3FF24B0
:10225000F39480911503982F929596959695937087
:10226000809116038170880F880F892B48E0843095
:1022700009F444E021E030E050E024173507C4F4CD
:10228000129FF001139FF00D1124EB5EFC4F908123
:10229000692F629566956695637091819170990F2B
:1022A000990F962B891303C02F5F3F4FE6CF8FEF17
:1022B000E091E701E1118AC0823009F47FC040F467
:1022C000882389F08130B9F0F0920A0382E0ACC033
:1022D000833009F476C08430B9F7F092010382E0CC
:1022E0008093FA020AC0F0920A0382E0809301030D
:1022F000F092FA0202C0809301038093F10280E021
:1023000093E00E94640580EF92E00E9464050E94C1
:1023100033028090AA019090AB01A090AC01B090E4
:10232000AD01681579058A059B0581F06093AA01C6
:102330007093AB018093AC019093AD018091A901A2
:102340008F5F8A3009F479C08093A9018091C6011A
:102350008823B1F00E9433028090C7019090C80199
:10236000A090C901B090CA01681979098A099B092E
:10237000653171058105910518F080E00E945809CA
:102380008091B001882309F47AC0F89488E0ECEBDE
:10239000F1E0ACEDB4E001900D928A95E1F7109276
:1023A000B00178948091DC04E82FF0E0E252FB4F1A
:1023B000863008F045C011928F5FFACF109201036A
:1023C00097CF10920103F092F10299CFE150EB30D8
:1023D00008F095CFF0E0E151FE4E0C94EF1D641132
:1023E000FF110312641111120F12091217120D12AC
:1023F0001B12FA11109201031092F10280CFF09299
:102400000A0382E003C082E080930A038093010301
:10241000F3CF83E080930A03F4CF84E0FBCF85E021
:10242000F9CF82E080930A0380930103CCCF83E04D
:1024300080930A034BCF84E0FBCF1092A90186CF93
:10244000E0E0F0E0EF2B21F08CED94E00E94000042
:102450008091DE048111BBC09091DF049111B7C05F
:1024600080E090E0892B19F080E00E9400008091CC
:10247000C601882309F4A7C081E00E94100380915F
:102480001102811102C0F0921102809108028111A3
:1024900002C0F09208028091FF01811102C0F09207
:1024A000FF018091F601811102C0F092F601809146
:1024B000ED01811102C0F092ED010E943302809083
:1024C000E8019090E901A090EA01B090EB019B0136
:1024D000AC01281939094A095B0949015A0134E15B
:1024E00083169104A104B10408F442C06093E8018A
:1024F0007093E9018093EA019093EB01209111031D
:1025000030E0F901E255FF4F8491F901E656FF4FA3
:10251000E490F901EA57FF4F0491002309F477C2D0
:1025200081110E948E01E02FF0E0EE0FFF1FE859AD
:10253000FF4FA591B491EC91EE2231E020E009F437
:1025400030E0832F922F282F217030911203231314
:102550000DC030911303231709F45EC220931303B7
:10256000892B09F457C283E0809310032093120350
:1025700000911003033011F4F092100380911003C6
:10258000823011F410921003023039F48091E70187
:10259000882319F01092E70100E0E091E701EC30A8
:1025A00008F055C2F0E0E952FD4E0C94EF1D1415F1
:1025B000C416F6163E1714175C175619EF170D18A8
:1025C000E118FF18DE1581E00E94580958CF90915C
:1025D000C601992309F492C08057803108F08BC05E
:1025E00081E00E9410030091DC048091CD0108136A
:1025F0000AC0402F50E06FEC71E08EED94E00E9435
:102600000E1E892B61F01092CC0188E0ECEDF4E015
:10261000ADECB1E001900D928A95E1F730CF809159
:10262000CC018F5F8093CC01033009F04CC09091B6
:10263000DE04892F87700091DF04853051F4009308
:10264000CB0180E090E0892B09F419CF0E940000B3
:1026500016CFADE1CA2ED12C8430A9F0282F30E05E
:10266000843008F5C090CB01CC20E9F04C2D4150CE
:10267000550B6A01CC0CDD1CCC0CDD1CC20ED31E2C
:102680005FEFC51AD50A93FF13C061E0C6010E942F
:102690004103882309F4F3CE602FC6010E94670925
:1026A0000813EDCECECF69018FEFC81AD80AEBCF51
:1026B00060E0C6010E944103882309F4E0CEC60110
:1026C0000E94B509EDCF043009F0D9CE8091DE0427
:1026D000682F70E0762F6627662773709091DF046D
:1026E000692B6F5F7F4F2FE332E04091E0048C70E5
:1026F0000E94BD09C4CE80E00E945809E091DE042A
:10270000EF3F61F48091DF048111B9CE80E090E069
:10271000892B09F4B4CE0E940000B1CEE7FD0DC0B4
:102720000091E1042091E0044091DF0470E060E05A
:102730008E2F90E00E942B0AA2CEE03C08F056C1FA
:102740004091C40147FF9BCE9091DF04292F30E0D8
:102750006901C094D094CC0CDD1CCC0CDD1CA0EC29
:10276000CA22A1E0DA22EF73CE2A35952795022FEF
:1027700003708091DC04853059F59C789C3041F5DC
:102780000E94F60A8C159D0531F0BFEFCB16B1E023
:10279000DB0609F074CEC090DF04D12CDC2CCC24F5
:1027A000CC24E3E0DE228091E004C80ED11CFFEFD0
:1027B000CF1ADF0A0091E10461E0C6010E944103E3
:1027C000602F882309F45BCEC6010E94670957CEAB
:1027D000460121E0821A9108880C991C880C991CEA
:1027E000802A54013FEFA31AB30A8091DC018823A9
:1027F000F9F046FF3DC0C50160E071E00E94DB1DBD
:10280000682F81E090E00E946709C501B7FE02C011
:1028100081509F4F692F89E090E00E94670980E016
:1028200090E0892B19F0C5010E9400001092DC0194
:102830008091C40180FD35C08091DC04843009F0B2
:102840004BC08091DF048978813009F018CE609107
:10285000E004C5010E94D905A0E0B0E0AB2B09F46B
:102860000ECE4091E004602FC5010E94000007CE0B
:10287000B6016F73772781E090E00E946709B60187
:1028800036E0759567953A95E1F789E090E00E940A
:10289000670940E050E0452B49F2C6010E94000064
:1028A000C5CF86FF0CC00E94F60A8A159B0521F24F
:1028B0005DEFA51657E0B5060CF0BECFE0CD0E9447
:1028C000F60A8C159D0509F4B7CF8FEFC81681E085
:1028D000D80609F4B1CFD3CD833041F54091DF0460
:1028E000B42FB1709B2E43FBEE24E0F8E0E0F0E063
:1028F000EF2B31F047702E2DB601C5010E9400006C
:102900008091C40186FF06C04E2D692DC5010E942D
:102910002407B5CD20E030E0232B09F4B0CD2E2DD7
:10292000492D602FC6010E940000A9CD863009F014
:10293000A6CD8091DF04982F9978913021F08F787F
:10294000803809F09CCD8091C40186FF29C00E9487
:10295000F60A8A159B05F1F48091E00490E0382F87
:10296000222722273370C090E104C20ED32ED11C3F
:102970003FEFC31AD30A0091E20495958795959588
:1029800087958370992782309105A9F0039709F400
:1029900013CF75CD4DEFA41647E0B406ECF66FCD1E
:1029A0000E94F60A8C159D05B9F25FEFC51651E03D
:1029B000D50691F264CD04FF62CD61E0C6010E94AC
:1029C0004103882309F45BCDC6010E94B509902F0D
:1029D000977061E070E001C0660F9A95EAF703FF17
:1029E00002C0682BF1CE60956823EECEE83E08F079
:1029F00046CDE05CFF0B8091DF040091E204209162
:102A0000E1044091E00461E070E09E2F93CE90E0FD
:102A100080E099CD82E0A8CD892B19F0F0921003C7
:102A2000A5CD10921003A2CD023089F40E9433028A
:102A30006093E3017093E4018093E5019093E601D4
:102A40008BE08093E701F092E2011092E1010E9495
:102A500033028090380290903902A0903A02B090F0
:102A60003B02681579058A059B05C1F16093380220
:102A70007093390280933A0290933B0284E10E9462
:102A800021022091E2022817190609F03CF588E09E
:102A9000C82E81E0D82ED6018C91B2E0CB0ED11C8D
:102AA00060E00E94B701E8E2CE16E1E0DE0699F7A9
:102AB00065E080E093E00E94C80565E080EF92E069
:102AC0000E94C805109203010E94330260933402F1
:102AD0007093350280933602909337028091030100
:102AE000811116C00E94330280903402909035020A
:102AF000A0903602B0903702681979098A099B09BB
:102B0000693873418105910508F4CCC7F09203013F
:102B100080910301813009F0C5C785E10E9421023F
:102B2000FC018091330280FF1FC08091300281112F
:102B30001DC08091310282958F7090913202492F91
:102B40004295407F242F282B392F32953F7049E042
:102B5000429FC001439F900D11246AE070E00E94E3
:102B6000DB1DE617F70714F0F09230028091300277
:102B7000882309F497C700912F02C02ED12C1C9DE9
:102B800040011D9D900C1124F401EB5EFC4F8081EF
:102B9000982F929596959695937081818170880F64
:102BA000880F892B853009F070C50F5F083008F059
:102BB000DDC700932F021092300274C70E943302C7
:102BC0008090E3019090E401A090E501B090E601CF
:102BD000AB01BC01481959096A097B0991E04230EF
:102BE00051056105710508F490E0809110028E7F17
:102BF0008093100281FB222720F9921731F08E7FFB
:102C0000892B90FB81F9809310028091100280FF44
:102C100007C0F092E20161E080E093E00E94C80505
:102C20000E943302AB01BC01481959096A097B09AA
:102C300091E0413D57406105710508F490E08091B5
:102C400007028E7F8093070281FB222720F99217CB
:102C500031F08E7F892B90FB81F980930702809160
:102C6000070280FF08C083E08093E20162E080E019
:102C700093E00E94C8050E943302AB01BC014819D1
:102C800059096A097B0991E0413A5F406105710584
:102C900008F490E08091FE018E7F8093FE0181FB1D
:102CA000222720F9921731F08E7F892B90FB81F932
:102CB0008093FE018091FE0180FF08C087E0809331
:102CC000E20163E080E093E00E94C8050E943302C5
:102CD000AB01BC01481959096A097B0991E04137E8
:102CE00057416105710508F490E08091F5018E7FF0
:102CF0008093F50181FB222720F9921731F08E7F16
:102D0000892B90FB81F98093F5018091F50180FF7B
:102D100008C089E08093E20164E080E093E00E94D3
:102D2000C8050E943302AB01BC01481959096A0960
:102D30007B0991E041345F416105710508F490E041
:102D40008091EC018E7F8093EC0181FB222720F99A
:102D5000921731F08E7F892B90FB81F98093EC01E3
:102D60008091EC0180FF08C086E08093E20165E07D
:102D700080E093E00E94C8058091E201033009F0F1
:102D800066CE8093E70163CE8091310280FF03C05D
:102D900082E08093E7010E945806882309F457CE09
:102DA0002091DF013091E001922F990F80911C0357
:102DB0008170892B80931C03932F990F822F881F7A
:102DC0008827881F892B80931D03932F991F99278C
:102DD000991F80911E038E7F892B80931E030E9472
:102DE0006C060E94A70B1092E70131CE0E94580694
:102DF000882309F42CCE8091DF019091E001892B8A
:102E000079F08091DF019091E001099758F4809169
:102E1000DF019091E00181508093DE0184E0B1CF29
:102E200080E0FACF87E0F8CF0E945806882309F4A3
:102E30000ECE2091DF013091E001E091DE011E9F76
:102E4000F0011124EC5EFC4F922F990F8085817068
:102E5000892B8087932F990F822F881F8827881F9F
:102E6000892B8187932F991F9927991F82858E7FA0
:102E7000892B82870E94A70B82E083CF0E9458068D
:102E8000882309F4E4CD8091DF019091E001892B42
:102E900079F08091DF019091E001099758F48091D9
:102EA000DF019091E00181508093DE0185E069CFE0
:102EB00080E0FACF87E0F8CF0E945806882309F413
:102EC000C6CD8091DF019091E001892B09F454C0B7
:102ED0008091DF019091E001069708F04FC080914A
:102EE000DF019091E00181500091DE01202F30E060
:102EF000129FF001139FF00D1124EC5EFC4F9181A5
:102F00009F73482F4295440F440F407C942B91832C
:102F100082FB442740F992819E7F942B9283948573
:102F20009F7794879585987F95609587823041F546
:102F3000848181708061848387E285831682178211
:102F400080858E7F808728E833E140E050E0248B45
:102F5000358B468B578B21A332A343A354A3019FE8
:102F6000C00111248C5E9C4F0E941D090E946C06BA
:102F70000E94A70B83E005CF80E0B6CF84E0B4CFFA
:102F8000982F9B7F61F7948191709466948315824A
:102F90001682178290859E7F9087448A558A668A1A
:102FA000778A41A252A263A274A20430C0F6843090
:102FB000B1F687E090E0821B930B189FF001199FF8
:102FC000F00D1124EC5EFC4F81818F73806481834E
:102FD000828181608283CF010E941D09C0CF0E943F
:102FE0005806882309F433CD8091DF019091E001E8
:102FF000892B79F08091DF019091E0010A9758F4D4
:103000008091DF019091E00181508093DE0188E0A2
:10301000B8CE80E0FACF88E0F8CF0E945806882327
:1030200009F415CD8091DF019091E001892B09F41D
:103030005BC08091DF019091E0018130984008F001
:1030400056C08091DF019091E0019093E001809360
:10305000DF01E091DE01E83008F057C01E9FF0016B
:103060001124DF01AB5EBC4F8C91982F9295969501
:103070009695937011968C918170880F880F892B8B
:10308000EC5EFC4F8230B1F58091DF019091E00160
:10309000829DA001839D500D929D500D112470E0E2
:1030A00060E0942F990F84818170892B8483952F00
:1030B000990F842F881F8827881F892B8583852F48
:1030C000881F8827881F8683178280858E7F808748
:1030D000448B558B668B778B41A352A363A374A358
:1030E0000E94A70B87E04DCE81E090E0AECF80E05C
:1030F00098E0ABCF8091DF019091E0012AE0289F1A
:10310000A001299F500D1124CACFA4E1B3E030E003
:1031100020E06AE0129F6001139FD00C1124A601E9
:103120004B5E5C4FFA018081982F9295969596950B
:10313000937081818170880F880F892BF601EC5E76
:10314000FC4F4091DF015091E0018230A1F5429D9A
:103150004001439D900C529D900C1124B12CA12C48
:10316000982D990F84818170892B8483992D990FD3
:10317000882D881F8827881F892B8583892D881F84
:103180008827881F8683178280858E7F8087549644
:103190008D929D92AD92BC92579791968D929D92F1
:1031A000AD92BC9294972F5F3F4FD996283031054E
:1031B00009F0B0CF95CF649F4001659F900C11241A
:1031C000CDCF0E945806882309F441CC8091DF01BD
:1031D0009091E001892B79F08091DF019091E001DD
:1031E0000A9758F48091DF019091E001815080931B
:1031F000DE018AE0C6CD80E0FACF88E0F8CF0E94F9
:103200005806882309F423CC8091DF019091E001D6
:10321000892B51F18091DF019091E0010B9738F5F6
:103220008091DF019091E0019093E0018093DF01B4
:10323000E091DE0130E020E0E830E0F48091DF0151
:103240009091E0011E9FF0011124EC5EFC4F24855B
:1032500080FB27F924879695879587709585987FB9
:10326000892B858789E08DCD81E090E0DDCF8AE0F4
:1032700090E0DACF8091DF019091E001129FF001A0
:10328000139FF00D1124EC5EFC4F448580FB47F941
:1032900044879695879587709585987F892B858734
:1032A0002F5F3F4F2830310529F7DCCF0E945806A9
:1032B000882309F4CCCB8091DF019091E001019744
:1032C000F1F554E1C52E53E0D52EB12CA12C1A9D59
:1032D000F0011B9DF00D1124EC5EFC4F81818F737A
:1032E000818382818E7F82838481817084668483DE
:1032F00015821682178280858E7F8087D60154962C
:103300004D925D926D927C92579791964D925D92FF
:103310006D927C92949784858F7784878585887F4A
:1033200085608587C6010E941D09BFEFAB1ABB0AE5
:10333000E9E3CE0ED11CF8E0AF16B10441F680915E
:10334000DF019091E001029741F544E1A42E43E0B2
:10335000B42ED12CC12C1C9DF0011D9DF00D11240B
:10336000EC5EFC4F81818F738064818382818E7FCC
:10337000828384858F7784878585887F856085872C
:10338000C5010E941D092FEFC21AD20A39E3A30E0C
:10339000B11C48E0C416D104F1F68091DF01909190
:1033A000E001039709F060C034E1C32E33E0D32E6F
:1033B000B12CA12C07E21A9DF0011B9DF00D1124E8
:1033C0009F012C5E3C4FD90111968C9111978F7300
:1033D000806811968C93119712968C9112978E7F1C
:1033E00012968C93129714968C9114978170806129
:1033F00014968C93149715960C93159716961C9209
:10340000169717961C92179718968C9118978E7F7F
:1034100018968C9388E893E1A0E0B0E0F601848BE5
:10342000958BA68BB78B81A392A3A3A3B4A3D90139
:103430001C968C911C978F771C968C931C971D96CD
:103440008C911D97887F85601D968C93C6010E9484
:103450001D09BFEFAB1ABB0AE9E3CE0ED11CF8E0A1
:10346000AF16B10409F0A7CF8091DF019091E00180
:10347000049739F524E1A22E23E0B22ED12CC12CE1
:103480001C9DF0011D9DF00D1124EC5EFC4F81810F
:10349000806C818382818E7F828384858F7784870D
:1034A0008585887F85608587C5010E941D092FEF6E
:1034B000C21AD20A39E3A30EB11C48E0C416D104E3
:1034C000F9F68091DF019091E001059709F054C071
:1034D00094E1C92E93E0D92EB12CA12C1A9DF001B4
:1034E0001B9DF00D1124EC5EFC4F81818F73818355
:1034F0008281816082838481817084668483158265
:103500001682178280858E7F8087D60154964D92D1
:103510005D926D927C92579791964D925D926D92CD
:103520007C92949784858F7784878585887F856052
:103530008587C6010E941D09C5010496189FF001E8
:10354000199FF00D1124EC5EFC4F81818F73806414
:103550008183828181608283C6018C519F4F0E944A
:103560001D09BFEFAB1ABB0AE9E3CE0ED11CF4E094
:10357000AF16B10409F0B2CF8091DF019091E00164
:10358000449729F4809131028E7F8093310280919B
:10359000DF019091E001459731F480913102816023
:1035A000837F809331028091DF019091E0014E97FB
:1035B00029F4809131028D7F809331028091DF0167
:1035C0009091E0014F9729F48091310282608093BD
:1035D00031028091DF019091E001889729F4809178
:1035E0003102837F809331028091DF019091E0016D
:1035F000899731F480913102837F88608093310212
:103600008091DF019091E0018A9731F4809131023D
:10361000837F8460809331028091DF019091E0018B
:10362000883E934039F08091DF019091E001843E23
:10363000934051F4809133028D7F8093330265E093
:1036400080EF92E00E94C8058091DF019091E00137
:10365000893E934039F08091DF019091E001853EF1
:10366000934051F48091330282608093330265E08D
:1036700080E093E00E94C8050E946C060E94A70BA0
:1036800081E392E00E947E0BAECB019F500111249A
:10369000F401E05EFC4F608166FB662760F9C501BE
:1036A000805C9C4F0E94A602882331F0F401EC5EFE
:1036B000FC4F84858064848780911902811126C023
:1036C0001C9DD0011D9DB00D1124FD01EB5EFC4F32
:1036D00080818295869586958370C1F4FD01EC5EAC
:1036E000FC4F8281982F987189F0F092190294858D
:1036F00090629487AA5EBC4F9C9193FB81F9828370
:103700009C9194FB82F9877F8F7E82831C9DC001F0
:103710001D9D900D1124FC01EB5EFC4F2081229534
:1037200026952695237099F0FC01EC5EFC4F2485CC
:10373000206224878A5E9C4FDC018C91928183FBFE
:1037400091F9892F94FB82F9877F8F7E82831C9D5C
:1037500040011D9D900C1124F401EA5EFC4FF88796
:10376000EF83608166956170C5018A5D9C4F0E9400
:10377000DB02AF81B8856C9162FB662760F9C501F9
:103780008D5C9C4F0E94DB02F401EC5EFC4F848553
:1037900085FF3EC0F401EB5EFC4F8081982F92952F
:1037A00096959695937081818170880F880F892BEB
:1037B000982F957011F0843059F51C9DF0011D9DD6
:1037C000F00D1124EC5EFC4F968D992319F0928137
:1037D0009D7F92831C9DF0011D9DF00D1124EC5ED8
:1037E000FC4F93A5992319F092819B7F928383705C
:1037F00079F41C9DF0011D9DF00D1124EC5EFC4F31
:103800008281867029F484858F7D848710921902C5
:103810001C9DF0011D9DF00D1124DF01AA5EBC4F1F
:103820009C9196959170EE5DFC4F80818E7F808398
:1038300081FB222720F9921729F08E7F892B90FB9C
:1038400081F98083F501EC5EFC4F5F011C9DC00196
:103850001D9D900D1124FC01EE5DFC4F208120FF89
:103860000AC0825E9C4FDC016C9166956F7141E0ED
:10387000C5010E9490081C9DF0011D9DF00D1124B2
:10388000DF01AA5EBC4F9C9192FB992790F9ED5DF8
:10389000FC4F80818E7F808381FB222720F9921745
:1038A00029F08E7F892B90FB81F980831C9DF0018C
:1038B0001D9DF00D1124DF01AD5DBC4F8C9180FF8B
:1038C00011C0E25EFC4F6081862F829586958695B9
:1038D000837061816770660F660F682B41E0C501D8
:1038E0000E9490081C9DF0011D9DF00D1124DF0128
:1038F000AA5EBC4F9C9196959170EC5DFC4F8081C7
:103900008E7F808381FB222720F9921731F08E7FF2
:1039100090FF816090FB81F980831C9DC0011D9DFB
:10392000900D1124FC01EC5DFC4F208120FF0AC0AA
:10393000825E9C4FFC01608166956F7140E0C5011D
:103940000E9490081C9DF0011D9DF00D1124DF01C7
:10395000AA5EBC4F9C9192FB992790F9EB5DFC4FBE
:1039600080818E7F808381FB222720F9921731F09E
:103970008E7F90FF816090FB81F980831C9DF00118
:103980001D9DF00D1124DF01AB5DBC4F8C9180FFBC
:1039900011C0E25EFC4F6081862F829586958695E8
:1039A000837061816770660F660F682B40E0C50108
:1039B0000E9490081C9DF0011D9DF00D1124DF0157
:1039C000AB5EBC4F8C91982F92959695969593707F
:1039D00011968C918170880F880F892B843009F0A3
:1039E0004AC0DF01AE5DBC4F8C9180FD05C0ED5D2E
:1039F000FC4F808180FF17C01C9D50011D9DB00CA5
:103A00001124F501E15EFC4F808160E0869586958A
:103A100086950E94B701F501E05EFC4F808160E071
:103A20008F710E94B7011C9DC0011D9D900D112436
:103A3000FC01EC5DFC4F208120FF0AC0815E9C4FA1
:103A4000DC018C9161E08695869586950E94B70190
:103A50001C9DC0011D9D900D1124FC01EB5DFC4FD0
:103A6000208120FF08C0805E9C4FFC01808161E0C6
:103A70008F710E94B7011C9DC0011D9D900D1124E6
:103A8000FC01EB5EFC4F2081229526952695237044
:103A900009F08BC88C5E9C4FDC0112968C9186706D
:103AA00009F483C861E083EE92E00E947402811100
:103AB0000E94A70B80912702811118C0F092240266
:103AC000F09225028EE391E090931B0280931A02FC
:103AD00020ED37E040E050E020931C0230931D02BF
:103AE00040931E0250931F02F092270261E08AE188
:103AF00092E00E947402882349F185E10E9421022C
:103B000020913102622F62956F7030913202732FD3
:103B10007295707F472F462B532F52955F704D5FE4
:103B20005F4F4817590790F4382F3295307F2F7028
:103B3000232B209331029295907F82958F70892B51
:103B40008093320281E392E00E947E0B80E090E05D
:103B5000892B11F40C9429110E947A01882311F405
:103B60000C9426110E9400000C94261110922F0232
:103B700022C8F999FECF92BD81BDF89A992780B5E8
:103B80000895262FF999FECF1FBA92BD81BD20BDA1
:103B90000FB6F894FA9AF99A0FBE01960895991BF8
:103BA00079E004C0991F961708F0961B881F7A9534
:103BB000C9F78095089597FB072E16F4009407D057
:103BC00077FD09D00E94F51D07FC05D03EF49095C5
:103BD00081959F4F0895709561957F4F0895EE0FE1
:103BE000FF1F0590F491E02D0994AA1BBB1B51E126
:103BF00007C0AA1FBB1FA617B70710F0A61BB70B5D
:103C0000881F991F5A95A9F780959095BC01CD0101
:103C1000089581E090E0F8940C941B1EFB01DC01F8
:103C200004C08D910190801921F441505040C8F793
:0A3C3000881B990B0895F894FFCF4C
:103C3A0000000201460246020900030005000600D0
:103C4A0007000A000B000C0001000000130012001C
:103C5A00110010000F000E00000000000D014702C5
:103C6A00AE005A01DF00BD00D1000000000074025E
:103C7A0000000000DB0200000000A602626567691E
:0E3C8A006E6E696E67206C6564000D0A0000A6
:00000001FF
