:100000000C949D000C94270E0C94000E0C94C500CB
:100010000C94C5000C94C5000C94C5000C94C5004C
:100020000C94C5000C94C5000C94C5000C94C5003C
:100030000C94C5000C94C5000C94C5000C94C5002C
:100040000C94B60D0C94C5000C94740E0C944E0ECA
:100050000C94C5000C94C5000C94C5000C94C5000C
:100060000C94C5000C94C500202D3E20004750493B
:100070004F3136004750494F3135004750494F31D5
:1000800034004750494F3133004750494F31320017
:100090004750494F3131004750494F3130004750A8
:1000A000494F3039004750494F3038004750494F89
:1000B0003037004750494F3036004750494F3035B0
:1000C000004750494F3034004750494F30330047C4
:1000D00050494F3032004750494F30310000000046
:1000E00000240027002A0000000000250028002B23
:1000F000000000000023002600290004040404047A
:1001000004040402020202020203030303030301C4
:10011000020408102040800102040810200102049B
:10012000081020000000080002010000030407007E
:100130000000000000000000A60E11241FBECFEF3B
:10014000D8E0DEBFCDBF11E0A0E0B1E0EEE2F6E422
:1001500002C005900D92A035B107D9F725E0A0E5C2
:10016000B1E001C01D92AC33B207E1F710E0CDE978
:10017000D0E004C02197FE010E94C421CC39D107F0
:10018000C9F70E94660F0C9415230C94000082306E
:10019000F8F4E82FF0E0EE0FFF1FEC5FFE4F20EECB
:1001A00033E031832083813041F0809169008C7F7E
:1001B000682B60936900E89A089580916900837FB5
:1001C000660F771F660F771F682B60936900E99AA7
:1001D0000895833081F028F4813099F08230A9F0BD
:1001E00008958730A9F08830C9F08430B1F4809147
:1001F00080008F7D03C0809180008F778093800086
:10020000089584B58F7784BD089584B58F7DFBCF25
:100210008091B0008F778093B00008958091B000F6
:100220008F7DF9CFCF93DF93282F30E0F901ED5D7B
:10023000FE4F8491F901E15FFE4FD491F901E55041
:10024000FF4FC491CC23A1F081110E94E900EC2F53
:10025000F0E0EE0FFF1FEF50FF4FA591B491EC912E
:10026000ED2381E090E009F480E0DF91CF910895E3
:1002700080E090E0FACF1F93CF93DF93282F30E0F8
:10028000F901ED5DFE4F8491F901E15FFE4FD491DC
:10029000F901E550FF4FC491CC23A9F0162F81112D
:1002A0000E94E900EC2FF0E0EE0FFF1FE951FF4F35
:1002B000A591B4918FB7F894EC91111108C0D09525
:1002C000DE23DC938FBFDF91CF911F910895DE2B4A
:1002D000F8CFCF93DF9390E0FC01E15FFE4F2491D4
:1002E00085509F4FFC0184918823C9F090E0880FCE
:1002F000991FFC01E352FF4FA591B491FC01E95114
:10030000FF4FC591D49161110DC09FB7F8948C91A6
:10031000209582238C938881282328839FBFDF9197
:10032000CF910895623051F49FB7F8943C91822F99
:10033000809583238C93E8812E2BEFCF8FB7F89491
:10034000EC912E2B2C938FBFEACF8E50806480933C
:100350007C0080917A00806480937A0080917A009A
:1003600086FDFCCF809178009091790008952FB799
:10037000F89460913302709134028091350290912B
:1003800036022FBF0895882389F0909103039817B0
:1003900068F08150809304030E94B70160930503C5
:1003A000709306038093070390930803089580E0F9
:1003B00090E0892B11F00C94000008950895AF92FD
:1003C000BF92CF92DF92EF92FF920F931F93CF9342
:1003D000DF936C017B018B01040F151FEB015E01A4
:1003E000AE18BF08C017D10759F06991D601ED9139
:1003F000FC910190F081E02DC6010995892B79F7D8
:10040000C501DF91CF911F910F91FF90EF90DF9089
:10041000CF90BF90AF900895FC01538D448D252F50
:1004200030E0842F90E0821B930B541710F0CF968E
:10043000089501970895FC01918D828D981761F0C0
:10044000A28DAE0FBF2FB11D5D968C91928D9F5FD7
:100450009F73928F90E008958FEF9FEF0895FC01B6
:10046000918D828D981731F0828DE80FF11D858D69
:1004700090E008958FEF9FEF0895FC01918D228DFC
:10048000892F90E0805C9F4F821B91098F73992781
:10049000089587E392E00E943D0221E0892B09F450
:1004A00020E0822F089580E090E0892B29F00E94BF
:1004B000490281110C9400000895FC01A48DA80F3D
:1004C000B92FB11DA35ABF4F2C91848D90E0019696
:1004D0008F739927848FA689B7892C93A089B189B6
:1004E0008C91837080648C93938D848D981306C057
:1004F0000288F389E02D80818F7D80830895EF92BB
:10050000FF920F931F93CF93DF93EC0181E0888FCD
:100510009B8D8C8D98131AC0E889F989808185FF9D
:1005200015C09FB7F894EE89FF896083E889F9893F
:1005300080818370806480839FBF81E090E0DF9141
:10054000CF911F910F91FF90EF900895F62E0B8D94
:1005500010E00F5F1F4F0F731127E02E8C8D8E114F
:100560000CC00FB607FCFACFE889F989808185FFB6
:10057000F5CFCE010E945D02F1CFEB8DEC0FFD2F88
:10058000F11DE35AFF4FF0829FB7F8940B8FEA8971
:10059000FB8980818062CFCF0F931F93CF93DF932E
:1005A0008C01D0E0C0E0F801EC0FFD1F64916623E0
:1005B00041F087E392E00E947F02892B11F021969F
:1005C000F2CFCE01DF91CF911F910F910895CF937C
:1005D000DF93EC01888D8823B9F0AA89BB89E8896B
:1005E000F9898C9185FD03C0808186FD0DC00FB611
:1005F00007FCF7CF8C9185FFF2CF808185FFEDCF8F
:10060000CE010E945D02E9CFDF91CF9108950F9353
:100610001F93CF93DF93EC01611108C00E94B701D3
:100620006E837F83888799871C861DC00E94B701CF
:100630000E811F8128853985601B710B820B930BFE
:100640000A811B812C813D81601771078207930706
:1006500058F30E94B7016E837F83888799878C85C2
:1006600091E089278C878C85DF91CF911F910F9125
:1006700008950F931F93CF93DF93EC011C866111B4
:1006800009C081E08A878B878C85DF91CF911F918C
:100690000F9108958A85882339F01A860E94B70140
:1006A0006E837F83888799870E94B7010E811F819F
:1006B00028853985601B710B820B930B0A811B8186
:1006C0002C813D816017710782079307E8F28B85C3
:1006D0008823D1F21B8681E08C87D6CFCF93C82F99
:1006E00080E090E0892B51F08091B8018C1731F0B7
:1006F00081E0C11101C080E00E940000C093B801F8
:1007000060E070E0CB01C1110E94B7016093B901B4
:100710007093BA018093BB019093BC0180E090E09C
:10072000892B59F08091B8018C1739F081E0C11103
:1007300001C080E0CF910C940000CF9108951F93E9
:10074000CF93DF93EC01162F80E090E0892B91F09E
:10075000C830D10579F4662319F10E94000080E0C9
:1007600090E0892BB9F0612FCE01DF91CF911F91DD
:100770000C94000080E090E0892BA9F781E0C1157E
:1007800094E0D90708F080E0111105C0DF91CF9106
:100790001F91089581E027972297C0F780E0F6CF58
:1007A00080E090E0892BF9F681E0F0CF80E090E0E6
:1007B000892B29F08091CF0183FD0C9400000895CE
:1007C000FF920F931F93CF93DF933FB7F8948091DD
:1007D0002E0290912F02A0913002B091310226B5E5
:1007E000A89B05C02F3F19F00196A11DB11D3FBF69
:1007F000BA2FA92F982F8827820F911DA11DB11DF7
:1008000042E0880F991FAA1FBB1F4A95D1F720917C
:100810005B0130915C01EC01C21BD30B209197016D
:1008200030919801C217D30708F45FC02091A0014E
:100830003091A1012130310561F0E091C901F091C1
:10084000CA0140815091CB01452350919501451338
:100850004CC090935C0180935B01009199011091D1
:100860009A012230310509F413C12330310509F40E
:100870004EC12130310561F480915A01813009F473
:1008800047C0C8F1833009F482C0843009F4C9C07C
:100890008091A0019091A101019739F1C017D10772
:1008A00008F06DC1809158018F5F809358018B30A3
:1008B000E0F081E090E09093A1018093A00161E0DD
:1008C00070E08091C7010E94C700109295011092BC
:1008D0005A0182E590E090939A018093990183E216
:1008E00090E09093980180939701DF91CF911F91B1
:1008F0000F91FF900895C017D10730F481E08093E5
:100900005A01C0935901C4CF84E080935A01C0CFEB
:10091000C017D107D0F510925A01809158018F5F0E
:1009200080935801209159018C2F0C2E000C990BAB
:10093000821B910927FD939597FF03C0919581959F
:100940009109499794F21092A1011092A00182E9B5
:1009500090E090939A018093990182E590E09093C2
:1009600098018093970110925801F09096016F2D95
:1009700070E08091C7010E94C7008091CB0193E095
:10098000F91227C08093950183CF83E0BECFC017B3
:10099000D10708F51092A1011092A00182E990E020
:1009A00090939A018093990182E590E09093980149
:1009B0008093970110925801F09096016F2D70E08E
:1009C0008091C7010E94C7008091CB0133E0F316EC
:1009D000C9F280E0D7CF90919601933009F482E07C
:1009E0008093960182E090E09093A1018093A00112
:1009F00082E990E090939A018093990182E590E0DA
:100A000090939801809397011092A60180915801CC
:100A10008093A7011092A3011092A5011092A40146
:100A2000CBCFC017D107A8F41092A1011092A0015A
:100A300082E990E090939A018093990182E590E099
:100A40009093980180939701109258011092A301FE
:100A50008CCF82E090E09093A1018093A00182E985
:100A600090E090939A018093990182E590E09093B1
:100A70009801809397011092A6018091580180936C
:100A8000A7011092A3011092A5011092A4016DCFAD
:100A90009091A3019F5F9093A3018091A401880F7F
:100AA000C017D107E0F08093A401983009F0F6CE8A
:100AB000E091A601E630A9F41092A1011092A001E4
:100AC00082E990E090939A018093990182E590E009
:100AD00090939801809397011092A301D9CE8160E1
:100AE000E2CF83E090E09093A1018093A00181E0A8
:100AF0008E0F8093A6019091A401F0E0E056FE4F86
:100B000090878091A50189278093A501C1CEC01748
:100B1000D10728F51092A1011092A0011092A30113
:100B200082E990E090939A018093990182E590E0A8
:100B300090939801809397018091A5018111B2CE85
:100B400088E0E6EAF1E0AEEAB1E001900D928A9524
:100B5000E1F781E08093A2011092580199CE809133
:100B6000A601863009F4A8CF82E090E09093A1011D
:100B70008093A0011092A3011092A40189CE10923B
:100B80005801B3CE0F931F93CF93DF93EC010E94D4
:100B9000B7010D811E812F813885601B710B820B7F
:100BA000930B0B851C852D853E8560177107820789
:100BB000930730F10E94B7016D837E838F839887FE
:100BC0008B818F5F8B839F85891302C01B8219865F
:100BD0008985882361F09B818881392F36952A8504
:100BE000321718F461E090FF20C060E01EC08981D8
:100BF000823089F350F48823B1F061E08130A1F0B4
:100C0000DF91CF911F910F9108958430D9F098F022
:100C10008530B1F76C8188810E943B018C8191E025
:100C200089278C83EDCF60E08881DF91CF911F9180
:100C30000F910C943B018B8165E00E948221911100
:100C4000DFCFE8CF8B8180FDDBCFE4CFCF93DF9385
:100C5000EC016F5F6A8781E089871B820E94B70180
:100C60006D837E838F839887DF91CF9108958EE087
:100C70000E94120108958FE00E941201089580E100
:100C80000E941201089581E10E941201089582E1FB
:100C90000E941201089583E10E941201089580E0EC
:100CA0000E941201089581E00E94120108958CE0D3
:100CB0000E94120108958BE00E94120108958AE0BB
:100CC0000E941201089587E00E941201089586E0B3
:100CD0000E941201089585E00E941201089583E0A8
:100CE0000E941201089589E00E9412010895AF92B6
:100CF000BF92CF92DF92EF92FF920F931F93CF9309
:100D0000DF932091230221FF59C08C0188EE93E0EC
:100D1000689F6001699FD00C11240D2C000CEE0817
:100D2000FF08D0E0C0E089E3B82EBC9E9001BD9ED4
:100D3000300D1124F901E75EFC4F9081892F8295D7
:100D400086958695837091819170990F990F982B54
:100D5000923079F5F901E05EFC4F50815695418162
:100D6000642F679566276795862F852B4695528158
:100D7000579555275795952F942BAC014F5F5F4F93
:100D80000817190731F5F901E85EFC4FC48AD58AC6
:100D9000E68AF78A828188608283AC2EA3946A2DCA
:100DA00081EF92E00E9426066A2D81EE92E00E9479
:100DB00026062196C830D10509F0B7CFDF91CF9133
:100DC0001F910F91FF90EF90DF90CF90BF90AF9069
:100DD00008950417150769F7F901E85EFC4FC1A2F1
:100DE000D2A2E3A2F4A282818061D6CF8091D30106
:100DF000882371F01092D30163E081EF92E00E94AA
:100E0000260663E081EE92E00E94260681E00895C6
:100E100080E008958091230280FD58C090912003C6
:100E2000969580912103482F479544274795242F75
:100E3000292B869590912203979599279795392F7D
:100E4000382B88E050E040E079E3749FF001759F13
:100E5000F00D1124E75EFC4F9081692F6295669535
:100E60006695637091819170990F990F962B9250AE
:100E7000923048F52E5F3F4F8F5F4F5F5F4F483096
:100E80005105E9F0749FF001759FF00D1124E85EA3
:100E9000FC4F90859170622F660F962B9087922F52
:100EA000991F9927991F632F660F962B918792851B
:100EB0009E7F632F661F6627661F962B928748309A
:100EC000510519F608952F5F3F4FD7CF88E0089559
:100ED000FC01848586FF04C0211102C080E00895D2
:100EE0008181282F22952695269523709281892F1E
:100EF0008170880F880F822B853081F324852064D0
:100F00002487308536952185522F5795552757953B
:100F1000A52FA32B26953285379533273795B32FE9
:100F2000B22B9D012F5F3F4F823061F120F0833063
:100F3000A1F0843099F6A617B70781F691E0411128
:100F400090E0828190FB83F990FB85F9417040FB32
:100F500084F940FB86F9828309C0A617B70741F4DC
:100F6000417040FB93F940FB95F9928381E008952D
:100F7000417040FB94F940FB96F92617370709F0BA
:100F8000ADCFF3CFA617B70719F440FB93F9EDCF18
:100F90002617370709F0A2CF40FB94F9E6CFCF928E
:100FA000DF92EF92FF920F931F93CF93DF93EC01A9
:100FB000162F042F8091250281FD0BC0C430D1056E
:100FC00009F45DC02497C13028E0D20710F0C0E0DA
:100FD000D8E00E94B701C0905001D0905101E0903C
:100FE0005201F09053016C197D098E099F09643FED
:100FF00071408105910588F00E94B701609350010E
:1010000070935101809352019093530181E080933A
:10101000D301D093D201C093D101809123028C706F
:1010200029F58091D901811121C00023F9F0FF2415
:10103000F394111101C0F12C08E113E020E04F2DD1
:10104000BE01C8010E946807882351F061E081EF6A
:1010500092E00E94260661E081EE92E00E94260660
:10106000075C1F4F84E0003E180741F7DF91CF91E6
:101070001F910F91FF90EF90DF90CF900895C1E006
:10108000D0E0A7CF2F923F924F925F926F927F92C4
:101090008F929F92AF92BF92CF92DF92EF92FF9288
:1010A0000F931F93CF93DF9300D01F92CDB7DEB77E
:1010B0007C01909123029C7009F4C7C029836A01C6
:1010C0000E940A0720912003269590912103392F31
:1010D000379533273795032F022B969520912203BE
:1010E000279522272795122F192B909123029C7068
:1010F000943009F08DC0CA94CD2809F0A6C0E0163E
:10110000F10608F4A2C0282F30E0A901415051098E
:1011100057FF02C04D5F5F4F5595479555954795D1
:101120004F5F400F512F511DE416F50608F08DC09A
:10113000E01AF10A9E2D990F990F4FE050E0092E09
:1011400002C0440F551F0A94E2F740955095209134
:101150005601309157014223532329812F7030E0EB
:1011600002C0220F331F9A95E2F7BA01622B732B4C
:101170007B836A83709357016093560140905401BA
:101180005090550170935501609354016415750595
:1011900009F45BC0F12CE12C282E312C4626572671
:1011A00066246394712C20EEA22E24E0B22EE21469
:1011B000F3040CF04AC0C3010E2C02C0880F991F23
:1011C0000A94E2F784219521892BF1F08A819B8191
:1011D0000E2C02C0969587950A94E2F7782F7170CD
:1011E00079834701800E911E88E1C82E83E0D82EB6
:1011F00021E04981B401C6010E94680789E3C80E55
:10120000D11CAC14BD04A1F79FEFE91AF90ACFCFA6
:101210009830A9F4E016F106C1F431E0C316D10408
:1012200071F062E0C616D10461F073E0C716D10414
:1012300051F094E0C916D10441F49CE07ECF90E0D7
:101240007CCF94E07ACF98E078CF0F900F900F90FA
:10125000DF91CF911F910F91FF90EF90DF90CF9092
:10126000BF90AF909F908F907F906F905F904F90C6
:101270003F902F900895FC01862F9181929596952D
:101280009695937019F4642F0C943B01413009F04A
:1012900058C02485922F991F9927991F258527705B
:1012A000220F292B2B3008F06BC0462F50E0FA019B
:1012B000E550FF4F9491FA01E15FFE4F3491E92F21
:1012C000F0E0EE0FFF1FE951FF4F65917491E8EEDA
:1012D000F4E0DF0150E040E014969C9114978913EC
:1012E0000AC085E0849FF001859FF00D1124E8512C
:1012F000FB4F238308954F5F5F4F15964031510593
:1013000059F750E040E094819F3F39F04F5F5F4FC5
:10131000359640315105B9F7089595E0949FD00175
:10132000959FB00D1124A851BB4F11967C936E93DD
:1013300012963C93129713962C93139714968C93B2
:101340000895E8EEF4E030E020E09481891312C0C3
:1013500085E0829FF001839FF00D1124E851FB4F3F
:10136000A081B1819C918281809589238C938FEF9C
:10137000848308952F5F3F4F35962031310529F73B
:101380000895CF93DF93EC018A8185788B7F8A83E0
:101390006A8566956F7140E0CE010E943B096A85BF
:1013A000862F82958695869583706B856770660F0C
:1013B000660F682B40E0CE010E943B098981982F7F
:1013C00092959695969593708A818170880F880F73
:1013D000892B843071F48B8560E08695869586959F
:1013E0000E943B018C8560E08F71DF91CF910C945E
:1013F0003B01DF91CF91089542E050E06CE471E051
:1014000087E392E00C94DF01DF92EF92FF920F935B
:101410001F93CF93DF937C018B01D0900B038D2D15
:1014200090E0019629E0AC01249FC001259F900D1A
:1014300011240E94DE21EC010097E9F19C0140E0BB
:101440008091090390910A03D41679F0F901EC1BFD
:10145000FD0BE80FF91F89E0D90101900D928A95E3
:10146000E1F74F5F275F3F4FEBCFDE0159E0D59E9D
:10147000A00DB11D11241C921296FC92EE921197B0
:1014800014961C930E9313974FEF50E060E070E0BA
:1014900015964D935D936D937C931897009711F07B
:1014A0000E947A22D0930A03C093090380910B0310
:1014B0008F5F80930B03DF91CF911F910F91FF906E
:1014C000EF90DF9008950E946E03E6EBF1E081E07B
:1014D00087831086EFEBF1E088E0DF011D928A95AB
:1014E000E9F708951F93CF93DF93EC01162F833113
:1014F0009105C8F48131910528F48130910511F0EE
:10150000099731F48FEF9FEF9093CD018093CC0139
:1015100080E090E0892BA9F0612FCE01DF91CF917F
:101520001F910C9400004D9799F7177F1093CF01EE
:101530008091B6018F73912F907C892B8093B60197
:10154000E1CFCE010E946C211817A1F080E090E05D
:10155000892B21F0612FCE010E94000080E090E0F5
:10156000892B41F08091B60184FD04C0612FCE012A
:101570000E940000CE01DF91CF911F910C946C214D
:1015800020E030E0232B11F00C9400000C946C212F
:10159000BF92CF92DF92EF92FF920F931F93CF9360
:1015A000DF938B01B42E690182FF23C083FF17C034
:1015B00061E0C8010E949F038823D9F16B2DC80107
:1015C0000E94720A8B1135C0F601DF91CF911F91F5
:1015D0000F91FF90EF90DF90CF90BF90099460E063
:1015E000C8010E949F03882321F1C8010E94C00AFC
:1015F000E9CF842F8770C1E0D0E07E0101C0EE0CFE
:101600008A95EAF7D42FD870CB010E94C00AC82F60
:10161000B4FE1CC061E0C8010E949F03882349F00A
:10162000DD2389F0CE296C2FC8010E94720A8C1725
:1016300059F2DF91CF911F910F91FF90EF90DF90C2
:10164000CF90BF900895E094CE21EDCF60E0C80127
:101650000E949F03882369F3CE21DD2319F0C11175
:10166000B3CFE7CFCC2309F4AFCFE3CFCF92DF9254
:10167000EF92FF920F931F93CF937C016B01C42FC6
:10168000402F8C2F807E803609F46FC080F480322A
:1016900009F44EC0803409F468C08823B9F1CF91B1
:1016A0001F910F91FF90EF90DF90CF900895803AB7
:1016B00009F492C088F42C2F2F7141E050E080385B
:1016C00071F7B601C701CF911F910F91FF90EF9075
:1016D000DF90CF900C944208803C09F486C0803E95
:1016E000F1F66C2F70E0762F662766277370622BF9
:1016F0006F5F7F4F26ED33E08C2FCF911F910F91BD
:10170000FF90EF90DF90CF900C94C80A8C2F8E70D2
:1017100031F680E090E0892B11F28C2F8170CF910F
:101720001F910F91FF90EF90DF90CF900C940000ED
:10173000CF71CF3109F0B3CF80E090E0892B09F46D
:10174000AECF422F4F7769F0413069F0221F222738
:10175000221F30E00FE710E0B601C7010E94000031
:101760009ECF41E0F3CF40E0F1CF80E090E0892BC5
:10177000C1F02C2F30E08C2F8F71813029F030F0A8
:10178000803121F08131F1F440E001C041E025FBDE
:10179000222720F90DE110E030E0B601C7010E94D8
:1017A000000080E090E0892B09F479CF4C2FB6013E
:1017B000C701CF911F910F91FF90EF90DF90CF90D5
:1017C0000C940000C901880F991F8E71C4FB442737
:1017D00040F9482B4250DBCF2C2F2F7043E050E0D4
:1017E000C4FF6FCF42E050E06CCFCF71CE3131F00B
:1017F000CF3109F054CF45E050E063CF44E050E0F2
:1018000060CFCF93DF932091CC013091CD012F3F5A
:10181000320721F0C901DF91CF9108958091CF0166
:1018200087FF2BC086FF0FC089E090E00E94C00AAE
:10183000C82F81E090E00E94C00A9C2F9093CD01B8
:101840008093CC0115C089E090E00E94C00AC82FA7
:1018500081E090E00E94C00A90E4C99F90011124A9
:10186000207C31708F73282B3093CD012093CC01D5
:101870008091CC019091CD01CECF85FF0CC081E14C
:1018800090E00E94C00AC82F82E190E00E94C00A46
:10189000C05CDD0BD2CF81E090E00E94C00A90E0F6
:1018A000CDCF0E9403238F929F92AF92BF92CF928F
:1018B000DF92EF92FF920F931F93CF93DF93CDB7F9
:1018C000DEB7A1970FB6F894DEBF0FBECDBF6A0199
:1018D0007B010E94CC0288E690E00E94CC0219A213
:1018E0008E010F5D1F4F8AE0882E912CA12CB12C08
:1018F000C701B601A50194010E94A22169017A01E4
:10190000605DF80162938F01C114D104E104F10418
:1019100079F7309761F001900020E9F73197AF0136
:10192000401B510BB80187E392E00E94DF010E9447
:10193000FC09A1960FB6F894DEBF0FBECDBFDF91B4
:10194000CF911F910F91FF90EF90DF90CF90BF90BC
:10195000AF909F908F900895FF920F931F93CF9316
:10196000DF93EC01F62E08811981C8010E946C21D9
:10197000F81621F06F2DC8010E947421CE01DF916D
:10198000CF911F910F91FF900895CF92DF92EF9228
:10199000FF920F931F93CF93DF9300D0CDB7DEB7A5
:1019A0006C017C0108E310E01A830983F70161915F
:1019B0007F01CE0101960E94AC0C0F5F1F4F0B33CD
:1019C000110591F7C6010F900F90DF91CF911F91F4
:1019D0000F91FF90EF90DF90CF900895AF92BF925C
:1019E000CF92DF92EF92FF920F931F93CF93DF93EB
:1019F00000D0CDB7DEB70DE511E0F80150E040E0D2
:101A000077E069E3749FD001759FB00D1124CD017B
:101A1000835A9E4F5C01649F9001659F300D112495
:101A2000D901A75EBC4F9C9192959695969593701F
:101A300011968C918170880F880F982BD5018C910D
:101A4000887FD901A65EBC4FFC90892BF5FA83F9FB
:101A5000F6FA84F9D901AC5DBC4F9C91F92EFF1CBC
:101A6000FF24FF1C11969C919770990F9F29F92EC6
:101A7000F294FF0CA0EEFA228F718F29D5018C937E
:101A8000D901A05EBC4F8C91E82EE6941196FC9093
:101A90008F2D8795882787958E29F694E82EE294D6
:101AA000B0EFEB229695969596959E29D5011196C5
:101AB0009C931197F29490EFF92282958F708F2961
:101AC00012968C93D901A45EBC4FFC909F2D9695E5
:101AD00011968C911197F82EF794FF24F794F92A18
:101AE000982F969512968C911297382F3795332709
:101AF0003795392B982F969513968C911397282FFD
:101B0000279522272795292B982F969514968C9107
:101B1000879588278795892BF3823483258386834D
:101B20004F5F5F4F37964830510509F06BCFF12C6E
:101B3000E12CFA82E982F80161918F01CE010196D0
:101B40000E94AC0CFFEFEF1AFF0A88E3E816F104DD
:101B500081F70F900F90DF91CF911F910F91FF9020
:101B6000EF90DF90CF90BF90AF9008951F920F92AB
:101B70000FB60F9211242F933F938F939F93AF93A0
:101B8000BF938091330290913402A0913502B091BD
:101B900036023091320223E0230F2D3758F501969B
:101BA000A11DB11D20933202809333029093340221
:101BB000A0933502B093360280912E0290912F02AD
:101BC000A0913002B09131020196A11DB11D809308
:101BD0002E0290932F02A0933002B0933102BF9156
:101BE000AF919F918F913F912F910F900FBE0F90CA
:101BF0001F90189526E8230F0296A11DB11DD2CF84
:101C00001F920F920FB60F9211242F933F934F9371
:101C10005F936F937F938F939F93AF93BF93EF9354
:101C2000FF93E0910601F09107010995FF91EF9173
:101C3000BF91AF919F918F917F916F915F914F91E4
:101C40003F912F910F900FBE0F901F9018951F92EC
:101C50000F920FB60F9211242F933F934F935F93E0
:101C60006F937F938F939F93AF93BF93EF93FF9364
:101C7000E0910401F09105010995FF91EF91BF9169
:101C8000AF919F918F917F916F915F914F913F9114
:101C90002F910F900FBE0F901F9018951F920F92CB
:101CA0000FB60F9211242F933F934F935F936F932F
:101CB0007F938F939F93AF93BF93EF93FF9387E3AC
:101CC00092E00E945D02FF91EF91BF91AF919F91D1
:101CD0008F917F916F915F914F913F912F910F90D5
:101CE0000FBE0F901F9018951F920F920FB60F9274
:101CF00011242F938F939F93EF93FF93E0914702CB
:101D0000F09148028081E0914D02F0914E0282FDF7
:101D10001BC09081809150028F5F8F732091510280
:101D2000821741F0E0915002F0E0E95CFD4F958FA1
:101D300080935002FF91EF919F918F912F910F907F
:101D40000FBE0F901F9018958081F4CF10923A0229
:101D50001092390288EE93E0A0E0B0E080933B025D
:101D600090933C02A0933D02B0933E0282E391E047
:101D7000909338028093370285EC90E09093440270
:101D80008093430284EC90E0909346028093450256
:101D900080EC90E0909348028093470281EC90E0C1
:101DA00090934A028093490282EC90E090934C0217
:101DB00080934B0286EC90E090934E0280934D020C
:101DC000109250021092510210925202109253023D
:101DD000E8E1F3E081E02AE431E0848F858F338B02
:101DE000228B81A782A730A3278F86AB87AB35A72D
:101DF00024A79385986F938794859F619487F9961C
:101E000094E0E03EF90749F7109216031092170389
:101E100010920A031092090310920B0344E650E05B
:101E200060E070E040930C0350930D0360930E0349
:101E300070930F031092100310921103109212036B
:101E400010921303109202031092010310920303E5
:101E500010920403109205031092060310920703D8
:101E60001092080346E950E060E070E04093FC0205
:101E70005093FD026093FE027093FF0294E19093F1
:101E8000000324E02093F1024093EC025093ED0212
:101E90006093EE027093EF029093F0029DE09093B6
:101EA000E1028093DE028093DF0284E491E090936C
:101EB000D5028093D402E8EEF4E088E395E02FEFBA
:101EC000248335968E179F07D9F70895CF93DF9314
:101ED000CDB7DEB72A970FB6F894DEBF0FBECDBFE1
:101EE000789484B5826084BD84B5816084BD85B5F5
:101EF000826085BD85B5816085BD80916E00816001
:101F000080936E00109281008091810082608093A6
:101F100081008091810081608093810080918000A8
:101F20008160809380008091B10084608093B100D3
:101F30008091B00081608093B00080917A008460CD
:101F400080937A0080917A00826080937A008091F9
:101F50007A00816080937A0080917A008068809313
:101F60007A001092C100E0914702F091480282E0AD
:101F70008083E0914302F09144021082E091450297
:101F8000F091460280E1808310924F02E0914B0273
:101F9000F0914C0286E08083E0914902F0914A0280
:101FA000808180618083E0914902F0914A028081C2
:101FB00088608083E0914902F0914A0280818068C4
:101FC0008083E0914902F0914A0280818F7D808375
:101FD00088EE93E0A0E0B0E08093D6029093D70221
:101FE000A093D802B093D90262E088E00E94690110
:101FF00088E080931503109214034EE0242E41E0F4
:10200000342ED1018C91B2E02B0E311C61E00E9484
:102010006901EEE22E16E1E03E0699F766ED70E00A
:1020200083E796E00E94040A6FEC70E08FE696E08A
:102030000E94040A68EC70E08BE696E00E94040AB5
:1020400061EC70E087E696E00E94040A6AEB70E0BB
:1020500083E696E00E94040A63EB70E08FE596E069
:102060000E94040A6CEA70E08BE596E00E94040A84
:1020700065EA70E087E596E00E94040A6EE970E088
:1020800083E596E00E94040A67E970E08FE496E039
:102090000E94040A60E970E08BE496E00E94040A62
:1020A00069E870E087E496E00E94040A62E870E064
:1020B00083E496E00E94040A6BE770E08FE396E009
:1020C0000E94040A64E770E08BE396E00E94040A31
:1020D0006DE670E087E396E00E94040A61E080917B
:1020E000F1020E94690160E08091F1020E943B01CF
:1020F00061E08091E1020E94690160E08091E1026B
:102100000E943B018CEF93E00E946C2189838DEF4C
:1021100093E00E946C218A838EEF93E00E946C21F1
:102120008B838FEF93E00E946C218C8389819A814D
:10213000AB81BC818F3E9E4BAD4ABE4D09F477C04A
:102140008FEE9EEBADEABEED89839A83AB83BC83B1
:102150009E012F5F3F4F79010CEF13E01E830D832B
:10216000D7016D917D01CE0105960E94AC0C0F5FE9
:102170001F4F0115B4E01B0789F780E091E00E9432
:10218000C50CA8E1B3E030E020E019E342E350E001
:1021900060E070E0129FF001139FF00D1124E85EE3
:1021A000FC4F81818F73818382818E7F82839481B2
:1021B00091709466948315821682178280858E7F33
:1021C000808754964D935D936D937C93579791962A
:1021D0004D935D936D937C939497C9010196382F2D
:1021E000330F20852170232B2087392F330F282F81
:1021F000221F2227221F232B2187392F331F33270A
:10220000331F22852E7F232B228724852F77248737
:102210002585287F2560258722812F7D2F7B22839E
:10222000D9969C01089709F0B5CF0E94EE0C88E37F
:1022300090E00E946C218093230289E390E00E9449
:102240006C21809324028AE390E00E946C218093A9
:1022500025023DE5C32E31E0D32E760110E000E0EB
:10226000C8010E946C21F70181937F010F5F1F4F0E
:1022700008331105A9F78091230387708067809345
:10228000230380912403807E8F60809324038091B8
:102290005C038770806880935C0380915D03807E1F
:1022A000816180935D03809195038770806980933D
:1022B000950380919603807E83618093960380913D
:1022C000CE0387708093CE038091CF03807E8160A0
:1022D0008093CF039EE0892E91E0992E08E113E0D0
:1022E000F12CE12C28EE422E23E0522E612C712C91
:1022F000F9E3FE9D9001FF9D300D1124F901E85E88
:10230000FC4F87E08E9DA0018F9D500D1124DA01B6
:10231000A35ABE4F8C91682F6295660F660F607C42
:1023200091819F73962B918382FB662760F992813E
:102330009E7F962B83FB95F984FB96F99283982FC9
:1023400092959695977011968C918F70880F880F43
:10235000880F892B948580FB97F9948786958770E1
:102360009585987F892B8587DA01A25ABE4F8C917B
:1023700082958F7011969C91492F4295407F842BB6
:1023800092959F70990F482F441F4427441F942B08
:10239000918792859E7F9287D60113967C911397A1
:1023A00014966C91149715965C91159716964C910E
:1023B000A72FAA0F948191709A2B9483A62FAA0F0E
:1023C000972F991F9927991F9A2B9583A52FAA0FAD
:1023D000962F991F9927991F9A2B9683A42FAA0F9E
:1023E000952F991F9927991F9A2B9783942F991F9F
:1023F0009927991F880F892B8087D80154967C9341
:10240000549755966C93559756965C935697579656
:102410004C93579791967C93919792966C93929741
:1024200093965C93939794964C93D40112964D9106
:102430005C9113978C918F71982F990F8285817081
:10244000642F6295660F660F607C892B862B8287CE
:10245000569547955695479547708385887F482BB5
:102460004387F80146A657A660AA71AAF901E75E5C
:10247000FC4F8081982F92959695969593708181C7
:102480008170880F880F892B982F957011F08430F8
:1024900011F5F9E3FE9DC001FF9D900D11249C01F3
:1024A0002E5D3C4F5901D9016C9166956F7140E0EA
:1024B000C8010E943B09F5016081862F82958695AF
:1024C0008695837061816770660F660F682B40E0A8
:1024D000C8010E943B09F9E3FE9D5001FF9DB00C2D
:1024E0001124F501E75EFC4F8081982F9295969517
:1024F0009695937081818170880F880F892B843025
:1025000001F59501265E3C4F38872F83D9016C91E8
:1025100065FB662760F9F501ED5DFC4F80818695CE
:10252000869586950E943B01EF81F885608166FB68
:10253000662760F9F501EC5DFC4F80818F710E9488
:102540003B0129E32E9DF0012F9DF00D1124DF01A9
:10255000A75EBC4F9C9111968C918170282F220F01
:10256000220F96FB882780F9822B813069F4DF01E6
:10257000A65EBC4F9C91E85EFC4F828195FB83F97F
:10258000982F86FB94F992833FEFE31AF30A47E012
:10259000C40ED11C075C1F4F54E0850E911C88E0CF
:1025A000E816F10409F0A4CE1092C70182E08093EE
:1025B000C801EDEFF0E0E491F0E0EE0FFF1FEF5007
:1025C000FF4F859194919093CA018093C901E1E1F5
:1025D000F1E0E491E093CB0160E082E00E946901C8
:1025E000E0EAF1E086E1DF011D928A95E9F782E9F0
:1025F00090E090939A018093990182E590E0909306
:1026000098018093970180EC8093B6011092B701F6
:102610008FEF9FEF9093CD018093CC011092CE016C
:1026200083E0809396018091CB018093950163E0D4
:1026300070E08091C7010E94C7008DE190E00E9488
:10264000C00A682F606C8DE190E00E94720A80934E
:10265000CF016BE087E090E00E94720A6DE088E0B5
:1026600090E00E94720A80E00E94630A12E3412E09
:10267000512C612C712C19E3FF24F39480910903F0
:1026800090910A03892B09F46BC00E94B7018090D6
:10269000100390901103A0901203B09013039B01BC
:1026A000AC01281939094A095B0949015A0180918D
:1026B0000C0390910D03A0910E03B0910F038F8333
:1026C0009887A987BA8788169906AA06BB0650F08C
:1026D0000E94B7016093100370931103809312035B
:1026E0009093130300E080910B030817C8F5C09086
:1026F0000903D0900A0399E0099FC00CD11C112452
:10270000D6018C9181111CC01196ED91FC91099517
:10271000482F50E070E060E0F60185819681A78146
:10272000B085481759076A077B0741F045835683F0
:1027300067837087838194810E94530C0F5FD3CF8E
:102740002F81388549855A8582169306A406B506D9
:10275000A8F31196ED91FC910995AB01BC01DCCF7A
:10276000C0900103D0900203C114D104B9F080914C
:10277000040390910303891788F4BDE08B9FC00C7C
:10278000D11C1124F6018081823009F441C0A8F5E2
:10279000882309F440C0813009F478C0809119037E
:1027A000982F929596959695937080911A038170C3
:1027B000880F880F892B48E0843009F444E021E039
:1027C00030E050E0241735070CF078C0129FF0017C
:1027D000139FF00D1124E75EFC4F9081692F6295E5
:1027E00066956695637091819170990F990F962BFC
:1027F000891363C02F5F3F4FE5CF833009F44EC08C
:10280000843061F60580F681E02D0995882331F248
:10281000F60183854BC00E94B7018090050390901C
:102820000603A0900703B0900803681979098A0984
:102830009B09D60111968D909D90AD90BC901497F8
:10284000681579058A059B0508F4A8CF0E94B70191
:102850006093050370930603809307039093080326
:10286000F60187819085009721F00E94CC020E949A
:10287000FC09D6011996ED91FC91309709F0099564
:10288000809104038F5F8093040388CF0580F681D5
:10289000E02D0995882309F481CFF2CF0580F681D8
:1028A000E02D0995882329F0F60184850E94C30153
:1028B00075CFD6011B968C91F9CF8FEFE091D9019E
:1028C000E1119FC0823009F494C040F4882389F05C
:1028D0008130B9F0F092FB0282E0C1C0833009F48C
:1028E0008BC08430B9F7F092F20282E08093EB0261
:1028F0000AC0F092FB0282E08093F202F092EB02B7
:1029000002C08093F2028093E20281EF92E00E9483
:10291000C20581EE92E00E94C2050E94B70180903C
:102920009C0190909D01A0909E01B0909F01681520
:1029300079058A059B0529F160939C0170939D019F
:1029400080939E0190939F0180919B018F5F8A30BD
:1029500009F48EC080939B0190919B01E8EEF4E016
:1029600084818F3F41F0911186C0A081B1818C910B
:102970002281822B8C93359628E335E02E173F0772
:1029800079F78091B8018823B1F00E94B701809057
:10299000B9019090BA01A090BB01B090BC01681938
:1029A00079098A099B09653171058105910518F03E
:1029B00080E00E94630A8091A201882309F484C008
:1029C000F89488E0EEEAF1E0A0EEB4E001900D9218
:1029D0008A95E1F71092A20178948091E004E82FA3
:1029E000F0E0EE51FB4F863008F04FC011928F5F40
:1029F000FACF1092F20282CF1092F202F092E2022B
:102A000084CFE150EB3008F080CFF0E0E65FFA4E83
:102A10000C94C4216A141A151E156A142C152A1553
:102A2000241532152815361515151092F20210923C
:102A3000E2026BCFF092FB0282E003C082E080935F
:102A4000FB028093F202F3CF83E08093FB02F4CF8A
:102A500084E0FBCF85E0F9CF82E08093FB02809396
:102A6000F202CCCF83E08093FB0236CF84E0FBCF31
:102A700010929B0171CF838198137DCFA081B1818A
:102A80002C9182818095822375CF40E050E0452BC8
:102A900021F080EE94E00E9400008091E204811118
:102AA0009DC09091E304911199C080E090E0892B42
:102AB00019F080E00E9400008091B801882309F499
:102AC00089C081E00E946E0380910302811102C0DF
:102AD000F09203028091FA01811102C0F092FA0192
:102AE0008091F101811102C0F092F1018091E80121
:102AF000811102C0F092E8018091DF01811102C0D2
:102B0000F092DF010E94B7018090DA019090DB0122
:102B1000A090DC01B090DD019B01AC0128193909BE
:102B20004A095B0949015A0134E183169104A10461
:102B3000B10428F16093DA017093DB018093DC012A
:102B40009093DD01809115030E9412019C0191E098
:102B50002115310509F490E08091160398130DC0FA
:102B600080911703981709F459C29093170383E0D3
:102B7000232B09F482E080931403909316030091B1
:102B80001403033011F4F092140380911403823083
:102B900011F410921403023039F48091D901882382
:102BA00019F01092D90100E0E091D901EC3008F061
:102BB00050C2F0E0E252FA4E0C94C4211618101ADA
:102BC000421A8A1A601AA81AAA1C3B1B591B311CEC
:102BD0004F1C2A1981E00E94630A76CF9091B801B8
:102BE000992309F492C08057803108F08BC081E0AE
:102BF0000E946E030091E0048091BF0108130AC097
:102C0000402F50E061EC71E082EE94E00E940823D6
:102C1000892B61F01092BE0188E0E0EEF4E0AFEBAA
:102C2000B1E001900D928A95E1F74ECF8091BE01FF
:102C30008F5F8093BE01033009F04CC09091E20495
:102C4000892F87700091E304853051F40093BD0112
:102C500080E090E0892B09F437CF0E94000034CF48
:102C6000FDE1CF2ED12C8430A9F0282F30E0843024
:102C700008F5C090BD01CC20E9F0AC2DA150BB0BF4
:102C80006D01CC0CDD1CCC0CDD1CC20ED31EBFEFC5
:102C9000CB1ADB0A93FF13C061E0C6010E949F03B9
:102CA000882309F411CF602FC6010E94720A08130D
:102CB0000BCFCECF6901EFEFCE1ADE0AEBCF60E08B
:102CC000C6010E949F03882309F4FECEC6010E941C
:102CD000C00AEDCF043009F0F7CE8091E204682FEE
:102CE00070E0762F6627662773709091E304692B56
:102CF0006F5F7F4F27ED31E04091E4048C700E94BC
:102D0000C80AE2CE80E00E94630AE091E204EF3F4D
:102D100061F48091E3048111D7CE80E090E0892BAB
:102D200009F4D2CE0E940000CFCEE7FD0DC0009185
:102D3000E5042091E4044091E30470E060E08E2F0C
:102D400090E00E94360BC0CEE03C08F056C14091A6
:102D5000B60147FFB9CE9091E304292F30E0690115
:102D6000C094D094CC0CDD1CCC0CDD1CF0ECCF223C
:102D7000F1E0DF22EF73CE2A35952795022F0370FD
:102D80008091E004853059F59C789C3041F50E9493
:102D9000010C8C159D0531F02FEFC21621E0D206F3
:102DA00009F092CEC090E304D12CDC2CCC24CC24AE
:102DB00033E0D3228091E404C80ED11C4FEFC41A33
:102DC000D40A0091E50461E0C6010E949F03602FD0
:102DD000882309F479CEC6010E94720A75CE460195
:102DE00051E0851A9108880C991C880C991C802A3E
:102DF00054018FEFA81AB80A8091CE018823F9F008
:102E000046FF3DC0C50160E071E00E948E21682F41
:102E100081E090E00E94720AC501B7FE02C08150B5
:102E20009F4F692F89E090E00E94720A80E090E055
:102E3000892B19F0C5010E9400001092CE018091EB
:102E4000B60180FD35C08091E004843009F04BC0AC
:102E50008091E3048978813009F036CE6091E404F2
:102E6000C5010E94770680E090E0892B09F42CCE02
:102E70004091E404602FC5010E94000025CEB601F8
:102E80006F73772781E090E00E94720AB601A6E096
:102E900075956795AA95E1F789E090E00E94720A1E
:102EA00080E090E0892B49F2C6010E940000C5CF66
:102EB00086FF0CC00E94010C8A159B0521F29DEF34
:102EC000A91697E0B9060CF0BECFFECD0E94010C0A
:102ED0008C159D0509F4B7CFAFEFCA16A1E0DA064D
:102EE00009F4B1CFF1CD833041F54091E304B42F23
:102EF000B1709B2E43FBEE24E0F8E0E0F0E0EF2B16
:102F000031F047702E2DB601C5010E94000080915E
:102F1000B60186FF06C04E2D692DC5010E94CF0760
:102F2000D3CD80E090E0892B09F4CECD2E2D492D14
:102F3000602FC6010E940000C7CD863009F0C4CDC5
:102F40008091E304982F9978913021F08F78803820
:102F500009F0BACD8091B60186FF29C00E94010C0C
:102F60008A159B05F1F48091E40490E0382F222724
:102F700022273370C090E504C20ED32ED11CFFEF80
:102F8000CF1ADF0A0091E604959587959595879568
:102F90008370992782309105A9F0039709F413CF24
:102FA00093CD2DEFA21627E0B206ECF68DCD0E9450
:102FB000010C8C159D05B9F23FEFC31631E0D30625
:102FC00091F282CD04FF80CD61E0C6010E949F0393
:102FD000882309F479CDC6010E94C00A902F97700A
:102FE00061E070E001C0660F9A95EAF703FF02C046
:102FF000682BF1CE60956823EECEE83E08F064CDF4
:10300000E05CFF0B8091E3040091E6042091E5046D
:103010004091E40461E070E09E2F93CE232B19F0E1
:10302000F0921403AACD10921403A7CD023089F4B4
:103030000E94B7016093D5017093D6018093D701A8
:103040009093D8018BE08093D901F092D401109233
:10305000D3010E94B70180902A0290902B02A09089
:103060002C02B0902D02681579058A059B0591F117
:1030700060932A0270932B0280932C0290932D026E
:1030800084E10E94A5010C972CF18EE0C82E81E00E
:10309000D82ED6018C91B2E0CB0ED11C60E00E94FC
:1030A0003B012C143D04A9F765E081EF92E00E94FA
:1030B000260665E081EE92E00E942606109203014A
:1030C0000E94B70160932602709327028093280222
:1030D0009093290280910301811163C00E94B7017E
:1030E0008090260290902702A0902802B09029029A
:1030F000681979098A099B09693873418105910525
:1031000010F40C940421B12CA12C1A9D60011B9D7C
:10311000D00C1124F601E85EFC4F82818D7F8B7FFD
:103120008283D601AA5DBC4F9C919D7F9C93D60162
:10313000A85DBC4F9C919D7F9C93D601A95DBC4F1F
:103140009C919D7F9C93D601A75DBC4F9C919D7FD8
:103150009C93D601A75EBC4F9C91292F2295269562
:1031600026952370982F9170990F990F922B292FE4
:103170002570213009F0DDC5D601A65EBC4F9C91BB
:1031800095FB83F982839C9196FB84F98283FFEF00
:10319000AF1ABF0A28E0A216B10409F0B6CFF09228
:1031A000030180910301813011F00C94042185E129
:1031B0000E94A501FC018091250280FF1FC0809123
:1031C000220281111DC08091230282958F709091FF
:1031D0002402492F4295407F242F282B392F3295E6
:1031E0003F7049E0429FC001439F900D11246AE067
:1031F00070E00E948E21E617F70714F0F092220289
:1032000080912202882311F40C9404210091210260
:10321000C02ED12C1C9D40011D9D900C1124F40149
:10322000E75EFC4F8081982F9295969596959370C6
:1032300081818170880F880F892B853009F09BC5AB
:103240000F5F083010F00C94682100932102109257
:103250002202DAC70E94B7018090D5019090D60172
:10326000A090D701B090D801AB01BC014819590911
:103270006A097B0991E0423051056105710508F446
:1032800090E0809102028E7F8093020281FB2227D0
:1032900020F9921731F08E7F892B90FB81F9809372
:1032A00002028091020280FF07C0F092D40161E027
:1032B00081EF92E00E9426060E94B701AB01BC019B
:1032C000481959096A097B0991E0413D5740610558
:1032D000710508F490E08091F9018E7F8093F901E7
:1032E00081FB222720F9921731F08E7F892B90FBEA
:1032F00081F98093F9018091F90180FF08C083E092
:103300008093D40162E081EF92E00E9426060E9441
:10331000B701AB01BC01481959096A097B0991E061
:10332000413A5F406105710508F490E08091F00139
:103330008E7F8093F00181FB222720F9921731F0D4
:103340008E7F892B90FB81F98093F0018091F001B1
:1033500080FF08C087E08093D40163E081EF92E0B2
:103360000E9426060E94B701AB01BC014819590909
:103370006A097B0991E0413757416105710508F4FD
:1033800090E08091E7018E7F8093E70181FB222707
:1033900020F9921731F08E7F892B90FB81F9809371
:1033A000E7018091E70180FF08C0E9E0E093D401E4
:1033B00064E081EF92E00E9426060E94B701AB0113
:1033C000BC01481959096A097B0991E041345F4100
:1033D0006105710508F490E08091DE018E7F809395
:1033E000DE0181FB222720F9921731F08E7F892B95
:1033F00090FB81F98093DE018091DE0180FF08C09F
:1034000086E08093D40165E081EF92E00E94260679
:103410008091D401033009F01CCE8093D90119CEDC
:103420008091230280FF03C082E08093D9010E9433
:10343000F606882309F40DCE2091D1013091D201F6
:10344000922F990F809120038170892B8093200304
:10345000932F990F822F881F8827881F892B80938D
:103460002103932F991F9927991F809122038E7F03
:10347000892B809322030E940A070E94EE0C10926F
:10348000D901E7CD0E94F606882309F4E2CD8091A8
:10349000D1019091D201892B79F08091D101909145
:1034A000D201099758F48091D1019091D2018150B5
:1034B0008093D00184E0B1CF80E0FACF87E0F8CFED
:1034C0000E94F606882309F4C4CD2091D1013091E1
:1034D000D201E091D0011E9FF0011124E85EFC4F63
:1034E000922F990F80858170892B8087932F990F58
:1034F000822F881F8827881F892B8187932F991FE8
:103500009927991F82858E7F892B82870E94EE0CD6
:1035100082E083CF0E94F606882309F49ACD809139
:10352000D1019091D201892B79F08091D1019091B4
:10353000D201099758F48091D1019091D201815024
:103540008093D00185E069CF80E0FACF87E0F8CFA3
:103550000E94F606882309F47CCD8091D1019091D8
:10356000D201892B09F454C08091D1019091D201EC
:10357000069708F04FC08091D1019091D2018150FF
:103580000091D001202F30E0129FF001139FF00D29
:103590001124E85EFC4F91819F73482F4295440FA0
:1035A000440F407C942B918382FB442740F9928105
:1035B0009E7F942B928394859F7794879585987F9F
:1035C00095609587823041F5848181708061848324
:1035D00087E285831682178280858E7F808728E820
:1035E00033E140E050E0248B358B468B578B21A391
:1035F00032A343A354A3019FC0011124885E9C4FB2
:103600000E94C1090E940A070E94EE0C83E005CFC8
:1036100080E0B6CF84E0B4CF982F9B7F61F7948190
:1036200091709466948315821682178290859E7F8E
:103630009087448A558A668A778A41A252A263A2F9
:1036400074A20430C0F68430B1F687E090E0821BAB
:10365000930B189FF001199FF00D1124E85EFC4FA9
:1036600081818F7380648183828181608283CF01B5
:103670000E94C109C0CF0E94F606882309F4E9CC54
:103680008091D1019091D201892B79F08091D10163
:103690009091D2010A9758F48091D1019091D20172
:1036A00081508093D00188E0B8CE80E0FACF88E0E6
:1036B000F8CF0E94F606882309F4CBCC8091D10183
:1036C0009091D201892B09F45DC08091D101909134
:1036D000D2018130984008F058C08091D10190917A
:1036E000D2019093D2018093D101E091D001E830D2
:1036F00008F059C01E9FF0011124DF01A75EBC4FE6
:103700008C91982F929596959695937011968C9191
:103710008170880F880F892BE85EFC4F8230C1F5DD
:103720008091D1019091D201A8EEB3E08A9FA001CF
:103730008B9F500D9A9F500D112470E060E0942FE4
:10374000990F84818170892B8483952F990F842F01
:10375000881F8827881F892B8583852F881F8827A6
:10376000881F8683178280858E7F8087448B558B48
:10377000668B778B41A352A363A374A30E94EE0CC4
:1037800087E04BCE81E090E0ACCF80E098E0A9CF1D
:103790008091D1019091D2012AE0289FA001299F18
:1037A000500D1124CACFA8E1B3E030E020E06AE078
:1037B000129F6001139FD00C1124A601475E5C4F3D
:1037C000FA018081982F92959695969593708181B4
:1037D0008170880F880F892BF601E85EFC4F4091BD
:1037E000D1015091D2018230B1F588EE93E0489F2B
:1037F0004001499F900C589F900C1124B12CA12C92
:10380000982D990F84818170892B8483992D990F2C
:10381000882D881F8827881F892B8583892D881FDD
:103820008827881F8683178280858E7F808754969D
:103830008D929D92AD92BC92579791968D929D924A
:10384000AD92BC9294972F5F3F4FD99628303105A7
:1038500009F0AECF93CF649F4001659F900C112477
:10386000CDCF0E94F606882309F4F3CB8091D101D5
:103870009091D201892B79F08091D1019091D20160
:103880000A9758F48091D1019091D2018150809390
:10389000D0018AE0C2CD80E0FACF88E0F8CF0E9464
:1038A000F606882309F4D5CB8091D1019091D201FD
:1038B000892B71F18091D1019091D2010B9758F52C
:1038C0008091D1019091D2019093D2018093D10146
:1038D000E091D00130E020E0E83000F58091D101A6
:1038E0009091D2011E9FF0011124E85EFC4F2485C7
:1038F00080FB27F924879695879587709585987F13
:10390000892B85870E94EE0C99E09093D901A1CB79
:1039100081E090E0D9CF8AE090E0D6CF8091D101CC
:103920009091D201129FF001139FF00D1124E85ED7
:10393000FC4F448580FB47F94487969587958770AF
:103940009585987F892B85872F5F3F4F28303105DC
:1039500029F7D8CF0E94F606882309F47ACB809104
:10396000D1019091D2010197F1F558E1C52E53E0B4
:10397000D52EB12CA12C1A9DF0011B9DF00D112408
:10398000E85EFC4F81818F73818382818E7F828389
:103990008481817084668483158216821782808573
:1039A0008E7F8087D60154964D925D926D927C9267
:1039B000579791964D925D926D927C9294978485E3
:1039C0008F7784878585887F85608587C6010E947B
:1039D000C109BFEFAB1ABB0AE9E3CE0ED11CF8E078
:1039E000AF16B10441F68091D1019091D2010297B6
:1039F00041F548E1A42E43E0B42ED12CC12C1C9DEE
:103A0000F0011D9DF00D1124E85EFC4F81818F7344
:103A10008064818382818E7F828384858F7784878F
:103A20008585887F85608587C5010E94C1092FEF44
:103A3000C21AD20A39E3A30EB11C48E0C416D1045D
:103A4000F1F68091D1019091D201039709F060C005
:103A500038E1C32E33E0D32EB12CA12C07E21A9DFE
:103A6000F0011B9DF00D11249F01285E3C4FD901F0
:103A700011968C9111978F73806811968C93119782
:103A800012968C9112978E7F12968C9312971496A1
:103A90008C9114978170806114968C93149715966D
:103AA0000C93159716961C92169717961C921797BB
:103AB00018968C9118978E7F18968C9388E893E1CE
:103AC000A0E0B0E0F601848B958BA68BB78B81A329
:103AD00092A3A3A3B4A3D9011C968C911C978F77B2
:103AE0001C968C931C971D968C911D97887F8560E2
:103AF0001D968C93C6010E94C109BFEFAB1ABB0A89
:103B0000E9E3CE0ED11CF8E0AF16B10409F0A7CF5F
:103B10008091D1019091D201049739F528E1A22E2C
:103B200023E0B22ED12CC12C1C9DF0011D9DF00D67
:103B30001124E85EFC4F8181806C818382818E7FBD
:103B4000828384858F7784878585887F8560858754
:103B5000C5010E94C1092FEFC21AD20A39E3A30E90
:103B6000B11C48E0C416D104F9F68091D1019091BE
:103B7000D201059709F054C098E1C92E93E0D92EDF
:103B8000B12CA12C1A9DF0011B9DF00D1124E85EB3
:103B9000FC4F81818F7381838281816082838481E4
:103BA00081708466848315821682178280858E7F59
:103BB0008087D60154964D925D926D927C92579774
:103BC00091964D925D926D927C92949784858F77B9
:103BD00084878585887F85608587C6010E94C109A5
:103BE000C5010496189FF001199FF00D1124E85E9D
:103BF000FC4F81818F7380648183828181608283A5
:103C0000C6018C519F4F0E94C109BFEFAB1ABB0A7E
:103C1000E9E3CE0ED11CF4E0AF16B10409F0B2CF47
:103C20008091D1019091D201449729F4809123028F
:103C30008E7F809323028091D1019091D20145978C
:103C400031F4809123028160837F809323028091ED
:103C5000D1019091D2014E9729F4809123028D7F5A
:103C6000809323028091D1019091D2014F9729F442
:103C7000809123028260809323028091D1019091F0
:103C8000D201889729F480912302837F80932302B5
:103C90008091D1019091D201899731F480912302D2
:103CA000837F8860809323028091D1019091D2011B
:103CB0008A9731F480912302837F8460809323026A
:103CC0008091D1019091D201883E934039F080914A
:103CD000D1019091D201843E934051F4809125020C
:103CE0008D7F8093250265E081EE92E00E9426069A
:103CF0008091D1019091D201893E934039F0809119
:103D0000D1019091D201853E934051F480912502DA
:103D100082608093250265E081EF92E00E94260692
:103D20000E940A070E94EE0C83E292E00E94C50CFA
:103D3000A6CB943009F02BCA9601265E3C4F490170
:103D4000D9016C9165FB662760F9F601ED5DFC4FCA
:103D500080818695869586950E943B01F40160815D
:103D600066FB662760F9F601EC5DFC4F80818F7180
:103D70000E943B010CCA019F50011124F401EC5D2B
:103D8000FC4F608166FB662760F9C5018C5B9C4F28
:103D90000E943903882331F0F401E85EFC4F8485EA
:103DA0008F7B848780910B02811126C01C9DD001DE
:103DB0001D9DB00D1124FD01E75EFC4F80818295B1
:103DC000869586958370C1F4FD01E85EFC4F828183
:103DD000982F987189F0F0920B02948590629487E5
:103DE000A65EBC4F9C9193FB81F982839C9194FBCE
:103DF00082F9877F8F7E82831C9DF0011D9DF00DCF
:103E00001124DF01A75EBC4F8C91982F9295969557
:103E10009695937011968C918170880F880F892BDD
:103E2000982F9570913069F4DF01A65EBC4F2C91FC
:103E3000E85EFC4F928123FB91F9292F94FB22F934
:103E40002283823031F51C9D90011D9D300D11247F
:103E5000F901E85EFC4F828181FD08C0265E3C4F7F
:103E6000D9019C9193FB81F9877F82831C9D9001EE
:103E70001D9D300D1124F901E85EFC4F828182FD09
:103E800008C0265E3C4FD9019C9194FB82F98F7E3D
:103E900082831C9D40011D9D900C1124F401E65E5F
:103EA000FC4FF887EF83608166956170C501865D80
:103EB0009C4F0E943903AF81B8856C9162FB6627E5
:103EC00060F9C501895C9C4F0E943903F401E75EEB
:103ED000FC4F8081982F929596959695937081814D
:103EE0008170880F880F892B8230B1F4F401E85E6D
:103EF000FC4F968D992319F092819D7F92831C9D92
:103F0000F0011D9DF00D1124E85EFC4F93A599234F
:103F100019F092819B7F92831C9DF0011D9DF00DF5
:103F20001124E85EFC4F948595FF24C0837011F541
:103F3000868D882319F082818D7F82831C9DF001FC
:103F40001D9DF00D1124E85EFC4F83A5882319F018
:103F500082818B7F82831C9DF0011D9DF00D1124B9
:103F6000E85EFC4F8281867029F484858F7D84878A
:103F700010920B021C9DF0011D9DF00D1124DF011C
:103F8000A65EBC4F9C9196959170EA5DFC4F808136
:103F90008E7F808381FB222720F9921729F08E7F64
:103FA000892B90FB81F98083F501E85EFC4F5F016E
:103FB0001C9DC0011D9D900D1124FC01EA5DFC4F6C
:103FC000208120FF0AC08E5D9C4FDC016C916695BC
:103FD0006F7141E0C5010E943B091C9DF0011D9DD0
:103FE000F00D1124DF01A65EBC4F9C9192FB992736
:103FF00090F9E95DFC4F80818E7F808381FB2227D1
:1040000020F9921729F08E7F892B90FB81F980830C
:104010001C9DF0011D9DF00D1124DF01A95DBC4F19
:104020008C9180FF11C0EE5DFC4F6081862F8295E0
:1040300086958695837061816770660F660F682B21
:1040400041E0C5010E943B091C9DF0011D9DF00D42
:104050001124DF01A65EBC4F9C9196959170E85D9E
:10406000FC4F80818E7F808381FB222720F992176D
:1040700031F08E7F90FF816090FB81F980831C9DE1
:10408000C0011D9D900D1124FC01E85DFC4F2081B5
:1040900020FF0AC08E5D9C4FFC01608166956F71A8
:1040A00040E0C5010E943B091C9DF0011D9DF00DE3
:1040B0001124DF01A65EBC4F9C9192FB992790F9D9
:1040C000E75DFC4F80818E7F808381FB222720F972
:1040D000921731F08E7F90FF816090FB81F9808391
:1040E0001C9DF0011D9DF00D1124DF01A75DBC4F4B
:1040F0008C9180FF11C0EE5DFC4F6081862F829510
:1041000086958695837061816770660F660F682B50
:1041100040E0C5010E943B091C9DF0011D9DF00D72
:104120001124DF01A75EBC4F8C91982F9295969534
:104130009695937011968C918170880F880F892BBA
:10414000843009F04AC0DF01AA5DBC4F8C9180FD2C
:1041500005C0E95DFC4F808180FF17C01C9D5001A8
:104160001D9DB00C1124F501ED5DFC4F808160E0D8
:104170008695869586950E943B01F501EC5DFC4F86
:10418000808160E08F710E943B011C9DC0011D9DDC
:10419000900D1124FC01E85DFC4F208120FF0AC036
:1041A0008D5D9C4FDC018C9161E0869586958695AE
:1041B0000E943B011C9DC0011D9D900D1124FC011E
:1041C000E75DFC4F208120FF08C08C5D9C4FFC0107
:1041D000808161E08F710E943B011C9DC0011D9D8B
:1041E000900D1124FC01E75EFC4F2081229526955D
:1041F0002695237009F024C8885E9C4FDC01129636
:104200008C91867009F41CC861E084ED92E00E94F4
:10421000070381110E94EE0C80911902811118C0D0
:10422000F0921602F092170284E491E090930D024E
:1042300080930C0220ED37E040E050E020930E0226
:1042400030930F024093100250931102F092190222
:1042500061E08CE092E00E940703882349F185E148
:104260000E94A50120912302622F62956F70309108
:104270002402732F7295707F472F462B532F529530
:104280005F704D5F5F4F4817590790F4382F329594
:10429000307F2F70232B209323029295907F82955D
:1042A0008F70892B8093240283E292E00E94C50CD8
:1042B00080E090E0892B11F40C943E130E94490297
:1042C000882311F40C943B130E9400000C943B13C0
:1042D000109221020C942719F999FECF92BD81BD4D
:1042E000F89A992780B50895262FF999FECF1FBA1D
:1042F00092BD81BD20BD0FB6F894FA9AF99A0FBE0F
:1043000001960895991B79E004C0991F961708F04B
:10431000961B881F7A95C9F78095089597FB072EFD
:1043200016F4009407D077FD09D00E94CA2107FC3B
:1043300005D03EF4909581959F4F089570956195B5
:104340007F4F0895A1E21A2EAA1BBB1BFD010DC0D1
:10435000AA1FBB1FEE1FFF1FA217B307E407F50735
:1043600020F0A21BB30BE40BF50B661F771F881F11
:10437000991F1A9469F760957095809590959B01A7
:10438000AC01BD01CF010895EE0FFF1F0590F49120
:10439000E02D0994AA1BBB1B51E107C0AA1FBB1F3C
:1043A000A617B70710F0A61BB70B881F991F5A95C1
:1043B000A9F780959095BC01CD0108950F931F93A7
:1043C000CF93DF938230910510F482E090E0E0918A
:1043D0003A05F0913B0530E020E0B0E0A0E03097F6
:1043E00099F42115310509F44AC0281B390B2430F2
:1043F0003105D8F58A819B816115710589F1FB0131
:1044000093838283FE0111C0408151810281138117
:1044100048175907E0F04817590799F4109761F0C9
:1044200012960C93129713961C933296CF01DF913C
:10443000CF911F910F91089500933A0510933B057A
:10444000F4CF2115310551F04217530738F0A90177
:10445000DB019A01BD01DF01F801C1CFEF01F9CF06
:1044600090933B0580933A05CDCFFE01E20FF31FF9
:10447000819391932250310939832883D7CF20919A
:10448000380530913905232B41F420910A013091F0
:104490000B013093390520933805209108013091A4
:1044A00009012115310541F42DB73EB740910C01AA
:1044B00050910D01241B350BE0913805F091390521
:1044C000E217F307A0F42E1B3F0B2817390778F0EB
:1044D000AC014E5F5F4F2417350748F04E0F5F1F4A
:1044E0005093390540933805819391939FCFF0E025
:1044F000E0E09CCFCF93DF930097E9F0FC01329787
:1045000013821282A0913A05B0913B05ED0130E093
:1045100020E01097A1F420813181820F931F209118
:104520003805309139052817390709F061C0F09333
:104530003905E0933805DF91CF910895EA01CE1750
:10454000DF07E8F54A815B819E0141155105B1F70E
:10455000E901FB83EA8349915991C40FD51FEC17F8
:10456000FD0761F4808191810296840F951FE90116
:1045700099838883828193819B838A83F0E0E0E042
:1045800012968D919C9113970097B9F52D913C91BE
:104590001197CD010296820F931F2091380530911B
:1045A00039052817390739F6309751F510923B0530
:1045B00010923A05B0933905A0933805BCCFD38348
:1045C000C28340815181840F951FC817D90761F4B8
:1045D0004E5F5F4F88819981480F591F51834083F7
:1045E0008A819B81938382832115310509F0B0CFA5
:1045F000F0933B05E0933A059ECFFD01DC01C0CF6F
:1046000013821282D7CF81E090E0F8940C941523A6
:10461000FB01DC0104C08D910190801921F441500F
:0E4620005040C8F7881B990B0895F894FFCFFF
:10462E0000000201DE01DE0100003C0580000900F1
:10463E0003000500060007000A000B000C00010035
:10464E00000013001200110010000F000E000000F9
:10465E0000007F02DF010C02E7023D021B022F0267
:10466E000000000007030000000039030D0A0000DF
:00000001FF
